{
  "_format": "hh-sol-artifact-1",
  "contractName": "Marketplace",
  "sourceName": "contracts/marketplace.sol",
  "abi": [
    {
      "inputs": [
        {
          "internalType": "address",
          "name": "nftAddress",
          "type": "address"
        }
      ],
      "stateMutability": "nonpayable",
      "type": "constructor"
    },
    {
      "anonymous": false,
      "inputs": [
        {
          "indexed": true,
          "internalType": "address",
          "name": "owner",
          "type": "address"
        },
        {
          "indexed": true,
          "internalType": "address",
          "name": "approved",
          "type": "address"
        },
        {
          "indexed": true,
          "internalType": "uint256",
          "name": "tokenId",
          "type": "uint256"
        }
      ],
      "name": "Approval",
      "type": "event"
    },
    {
      "anonymous": false,
      "inputs": [
        {
          "indexed": true,
          "internalType": "address",
          "name": "owner",
          "type": "address"
        },
        {
          "indexed": true,
          "internalType": "address",
          "name": "operator",
          "type": "address"
        },
        {
          "indexed": false,
          "internalType": "bool",
          "name": "approved",
          "type": "bool"
        }
      ],
      "name": "ApprovalForAll",
      "type": "event"
    },
    {
      "anonymous": false,
      "inputs": [
        {
          "indexed": false,
          "internalType": "uint256",
          "name": "tokenId",
          "type": "uint256"
        },
        {
          "indexed": false,
          "internalType": "address",
          "name": "winner",
          "type": "address"
        },
        {
          "indexed": false,
          "internalType": "uint256",
          "name": "amount",
          "type": "uint256"
        }
      ],
      "name": "AuctionFinished",
      "type": "event"
    },
    {
      "anonymous": false,
      "inputs": [
        {
          "indexed": false,
          "internalType": "uint256",
          "name": "tokenId",
          "type": "uint256"
        },
        {
          "indexed": false,
          "internalType": "address",
          "name": "bidder",
          "type": "address"
        },
        {
          "indexed": false,
          "internalType": "uint256",
          "name": "amount",
          "type": "uint256"
        }
      ],
      "name": "BidPlaced",
      "type": "event"
    },
    {
      "anonymous": false,
      "inputs": [
        {
          "indexed": true,
          "internalType": "address",
          "name": "from",
          "type": "address"
        },
        {
          "indexed": true,
          "internalType": "address",
          "name": "to",
          "type": "address"
        },
        {
          "indexed": true,
          "internalType": "uint256",
          "name": "tokenId",
          "type": "uint256"
        }
      ],
      "name": "Transfer",
      "type": "event"
    },
    {
      "stateMutability": "payable",
      "type": "fallback"
    },
    {
      "inputs": [
        {
          "internalType": "address",
          "name": "to",
          "type": "address"
        },
        {
          "internalType": "uint256",
          "name": "tokenId",
          "type": "uint256"
        }
      ],
      "name": "approve",
      "outputs": [],
      "stateMutability": "nonpayable",
      "type": "function"
    },
    {
      "inputs": [
        {
          "internalType": "address",
          "name": "owner",
          "type": "address"
        }
      ],
      "name": "balanceOf",
      "outputs": [
        {
          "internalType": "uint256",
          "name": "",
          "type": "uint256"
        }
      ],
      "stateMutability": "view",
      "type": "function"
    },
    {
      "inputs": [
        {
          "internalType": "uint256",
          "name": "tokenId",
          "type": "uint256"
        }
      ],
      "name": "bid",
      "outputs": [],
      "stateMutability": "payable",
      "type": "function"
    },
    {
      "inputs": [
        {
          "internalType": "uint256",
          "name": "tokenId",
          "type": "uint256"
        }
      ],
      "name": "cancelAuction",
      "outputs": [],
      "stateMutability": "nonpayable",
      "type": "function"
    },
    {
      "inputs": [
        {
          "internalType": "uint256",
          "name": "tokenId",
          "type": "uint256"
        },
        {
          "internalType": "uint256",
          "name": "price",
          "type": "uint256"
        },
        {
          "internalType": "uint256",
          "name": "time",
          "type": "uint256"
        }
      ],
      "name": "createAuction",
      "outputs": [],
      "stateMutability": "nonpayable",
      "type": "function"
    },
    {
      "inputs": [
        {
          "internalType": "uint256",
          "name": "tokenId",
          "type": "uint256"
        }
      ],
      "name": "finishAuction",
      "outputs": [],
      "stateMutability": "nonpayable",
      "type": "function"
    },
    {
      "inputs": [
        {
          "internalType": "uint256",
          "name": "tokenId",
          "type": "uint256"
        }
      ],
      "name": "getApproved",
      "outputs": [
        {
          "internalType": "address",
          "name": "",
          "type": "address"
        }
      ],
      "stateMutability": "view",
      "type": "function"
    },
    {
      "inputs": [
        {
          "internalType": "uint256",
          "name": "tokenId",
          "type": "uint256"
        }
      ],
      "name": "getInfoAuction",
      "outputs": [
        {
          "components": [
            {
              "internalType": "uint256",
              "name": "_highestBid",
              "type": "uint256"
            },
            {
              "internalType": "uint256",
              "name": "_time",
              "type": "uint256"
            },
            {
              "internalType": "address",
              "name": "_auctioneer",
              "type": "address"
            },
            {
              "internalType": "address",
              "name": "_highestBidder",
              "type": "address"
            },
            {
              "internalType": "bool",
              "name": "completed",
              "type": "bool"
            }
          ],
          "internalType": "struct Marketplace.NftAuction",
          "name": "nft",
          "type": "tuple"
        }
      ],
      "stateMutability": "view",
      "type": "function"
    },
    {
      "inputs": [
        {
          "internalType": "uint256",
          "name": "tokenId",
          "type": "uint256"
        }
      ],
      "name": "getInfoAuctionAuctioneer",
      "outputs": [
        {
          "internalType": "address",
          "name": "",
          "type": "address"
        }
      ],
      "stateMutability": "view",
      "type": "function"
    },
    {
      "inputs": [
        {
          "internalType": "uint256",
          "name": "tokenId",
          "type": "uint256"
        }
      ],
      "name": "getInfoAuctionHighestBid",
      "outputs": [
        {
          "internalType": "uint256",
          "name": "",
          "type": "uint256"
        }
      ],
      "stateMutability": "view",
      "type": "function"
    },
    {
      "inputs": [
        {
          "internalType": "uint256",
          "name": "tokenId",
          "type": "uint256"
        }
      ],
      "name": "getInfoAuctionTime",
      "outputs": [
        {
          "internalType": "uint256",
          "name": "",
          "type": "uint256"
        }
      ],
      "stateMutability": "view",
      "type": "function"
    },
    {
      "inputs": [
        {
          "internalType": "address",
          "name": "owner",
          "type": "address"
        },
        {
          "internalType": "address",
          "name": "operator",
          "type": "address"
        }
      ],
      "name": "isApprovedForAll",
      "outputs": [
        {
          "internalType": "bool",
          "name": "",
          "type": "bool"
        }
      ],
      "stateMutability": "view",
      "type": "function"
    },
    {
      "inputs": [],
      "name": "listAuction",
      "outputs": [
        {
          "internalType": "uint256[]",
          "name": "tokenIds",
          "type": "uint256[]"
        }
      ],
      "stateMutability": "view",
      "type": "function"
    },
    {
      "inputs": [],
      "name": "name",
      "outputs": [
        {
          "internalType": "string",
          "name": "",
          "type": "string"
        }
      ],
      "stateMutability": "view",
      "type": "function"
    },
    {
      "inputs": [
        {
          "internalType": "uint256",
          "name": "tokenId",
          "type": "uint256"
        }
      ],
      "name": "ownerOf",
      "outputs": [
        {
          "internalType": "address",
          "name": "",
          "type": "address"
        }
      ],
      "stateMutability": "view",
      "type": "function"
    },
    {
      "inputs": [
        {
          "internalType": "address",
          "name": "from",
          "type": "address"
        },
        {
          "internalType": "address",
          "name": "to",
          "type": "address"
        },
        {
          "internalType": "uint256",
          "name": "tokenId",
          "type": "uint256"
        }
      ],
      "name": "safeTransferFrom",
      "outputs": [],
      "stateMutability": "nonpayable",
      "type": "function"
    },
    {
      "inputs": [
        {
          "internalType": "address",
          "name": "from",
          "type": "address"
        },
        {
          "internalType": "address",
          "name": "to",
          "type": "address"
        },
        {
          "internalType": "uint256",
          "name": "tokenId",
          "type": "uint256"
        },
        {
          "internalType": "bytes",
          "name": "data",
          "type": "bytes"
        }
      ],
      "name": "safeTransferFrom",
      "outputs": [],
      "stateMutability": "nonpayable",
      "type": "function"
    },
    {
      "inputs": [
        {
          "internalType": "address",
          "name": "operator",
          "type": "address"
        },
        {
          "internalType": "bool",
          "name": "approved",
          "type": "bool"
        }
      ],
      "name": "setApprovalForAll",
      "outputs": [],
      "stateMutability": "nonpayable",
      "type": "function"
    },
    {
      "inputs": [
        {
          "internalType": "bytes4",
          "name": "interfaceId",
          "type": "bytes4"
        }
      ],
      "name": "supportsInterface",
      "outputs": [
        {
          "internalType": "bool",
          "name": "",
          "type": "bool"
        }
      ],
      "stateMutability": "view",
      "type": "function"
    },
    {
      "inputs": [],
      "name": "symbol",
      "outputs": [
        {
          "internalType": "string",
          "name": "",
          "type": "string"
        }
      ],
      "stateMutability": "view",
      "type": "function"
    },
    {
      "inputs": [
        {
          "internalType": "uint256",
          "name": "index",
          "type": "uint256"
        }
      ],
      "name": "tokenByIndex",
      "outputs": [
        {
          "internalType": "uint256",
          "name": "",
          "type": "uint256"
        }
      ],
      "stateMutability": "view",
      "type": "function"
    },
    {
      "inputs": [
        {
          "internalType": "address",
          "name": "owner",
          "type": "address"
        },
        {
          "internalType": "uint256",
          "name": "index",
          "type": "uint256"
        }
      ],
      "name": "tokenOfOwnerByIndex",
      "outputs": [
        {
          "internalType": "uint256",
          "name": "",
          "type": "uint256"
        }
      ],
      "stateMutability": "view",
      "type": "function"
    },
    {
      "inputs": [
        {
          "internalType": "uint256",
          "name": "tokenId",
          "type": "uint256"
        }
      ],
      "name": "tokenURI",
      "outputs": [
        {
          "internalType": "string",
          "name": "",
          "type": "string"
        }
      ],
      "stateMutability": "view",
      "type": "function"
    },
    {
      "inputs": [],
      "name": "totalSupply",
      "outputs": [
        {
          "internalType": "uint256",
          "name": "",
          "type": "uint256"
        }
      ],
      "stateMutability": "view",
      "type": "function"
    },
    {
      "inputs": [
        {
          "internalType": "address",
          "name": "from",
          "type": "address"
        },
        {
          "internalType": "address",
          "name": "to",
          "type": "address"
        },
        {
          "internalType": "uint256",
          "name": "tokenId",
          "type": "uint256"
        }
      ],
      "name": "transferFrom",
      "outputs": [],
      "stateMutability": "nonpayable",
      "type": "function"
    },
    {
      "stateMutability": "payable",
      "type": "receive"
    }
  ],
  "bytecode": "0x60806040523480156200001157600080fd5b506040516200505938038062005059833981810160405281019062000037919062000239565b6040518060400160405280601081526020017f4b696c6e204d61726b6574706c616365000000000000000000000000000000008152506040518060400160405280600481526020017f4b4c4159000000000000000000000000000000000000000000000000000000008152508160009080519060200190620000bb9291906200011f565b508060019080519060200190620000d49291906200011f565b50505080600a60006101000a81548173ffffffffffffffffffffffffffffffffffffffff021916908373ffffffffffffffffffffffffffffffffffffffff16021790555050620002d0565b8280546200012d906200029a565b90600052602060002090601f0160209004810192826200015157600085556200019d565b82601f106200016c57805160ff19168380011785556200019d565b828001600101855582156200019d579182015b828111156200019c5782518255916020019190600101906200017f565b5b509050620001ac9190620001b0565b5090565b5b80821115620001cb576000816000905550600101620001b1565b5090565b600080fd5b600073ffffffffffffffffffffffffffffffffffffffff82169050919050565b60006200020182620001d4565b9050919050565b6200021381620001f4565b81146200021f57600080fd5b50565b600081519050620002338162000208565b92915050565b600060208284031215620002525762000251620001cf565b5b6000620002628482850162000222565b91505092915050565b7f4e487b7100000000000000000000000000000000000000000000000000000000600052602260045260246000fd5b60006002820490506001821680620002b357607f821691505b60208210811415620002ca57620002c96200026b565b5b50919050565b614d7980620002e06000396000f3fe60806040526004361061016a5760003560e01c80636352211e116100d1578063a838b72e1161008a578063cda4beef11610064578063cda4beef14610593578063cf266ed0146105bc578063e985e9c5146105e5578063fe919c831461062257610171565b8063a838b72e146104f0578063b88d4fde1461052d578063c87b56dd1461055657610171565b80636352211e146103bc5780636c8a451c146103f957806370a082311461043657806395d89b411461047357806396b5a7551461049e578063a22cb465146104c757610171565b806323b872dd1161012357806323b872dd146102a95780632cf6856f146102d25780632f745c59146102fd57806342842e0e1461033a578063454a2ab3146103635780634f6ccce71461037f57610171565b806301ffc9a71461017357806306fdde03146101b0578063081812fc146101db578063095ea7b31461021857806318160ddd146102415780631acb17461461026c57610171565b3661017157005b005b34801561017f57600080fd5b5061019a600480360381019061019591906133b3565b61065f565b6040516101a791906133fb565b60405180910390f35b3480156101bc57600080fd5b506101c56106d9565b6040516101d291906134af565b60405180910390f35b3480156101e757600080fd5b5061020260048036038101906101fd9190613507565b61076b565b60405161020f9190613575565b60405180910390f35b34801561022457600080fd5b5061023f600480360381019061023a91906135bc565b6107b1565b005b34801561024d57600080fd5b506102566108c9565b604051610263919061360b565b60405180910390f35b34801561027857600080fd5b50610293600480360381019061028e9190613507565b6108d6565b6040516102a0919061360b565b60405180910390f35b3480156102b557600080fd5b506102d060048036038101906102cb9190613626565b6108f6565b005b3480156102de57600080fd5b506102e7610956565b6040516102f49190613737565b60405180910390f35b34801561030957600080fd5b50610324600480360381019061031f91906135bc565b610b35565b604051610331919061360b565b60405180910390f35b34801561034657600080fd5b50610361600480360381019061035c9190613626565b610bda565b005b61037d60048036038101906103789190613507565b610bfa565b005b34801561038b57600080fd5b506103a660048036038101906103a19190613507565b610fcc565b6040516103b3919061360b565b60405180910390f35b3480156103c857600080fd5b506103e360048036038101906103de9190613507565b61103d565b6040516103f09190613575565b60405180910390f35b34801561040557600080fd5b50610420600480360381019061041b9190613507565b6110c4565b60405161042d9190613575565b60405180910390f35b34801561044257600080fd5b5061045d60048036038101906104589190613759565b611104565b60405161046a919061360b565b60405180910390f35b34801561047f57600080fd5b506104886111bc565b60405161049591906134af565b60405180910390f35b3480156104aa57600080fd5b506104c560048036038101906104c09190613507565b61124e565b005b3480156104d357600080fd5b506104ee60048036038101906104e991906137b2565b6116bc565b005b3480156104fc57600080fd5b5061051760048036038101906105129190613507565b6116d2565b6040516105249190613878565b60405180910390f35b34801561053957600080fd5b50610554600480360381019061054f91906139c8565b6117da565b005b34801561056257600080fd5b5061057d60048036038101906105789190613507565b61183c565b60405161058a91906134af565b60405180910390f35b34801561059f57600080fd5b506105ba60048036038101906105b59190613a4b565b6118a4565b005b3480156105c857600080fd5b506105e360048036038101906105de9190613507565b611bb3565b005b3480156105f157600080fd5b5061060c60048036038101906106079190613a9e565b612089565b60405161061991906133fb565b60405180910390f35b34801561062e57600080fd5b5061064960048036038101906106449190613507565b61211d565b604051610656919061360b565b60405180910390f35b60007f780e9d63000000000000000000000000000000000000000000000000000000007bffffffffffffffffffffffffffffffffffffffffffffffffffffffff1916827bffffffffffffffffffffffffffffffffffffffffffffffffffffffff191614806106d257506106d18261213d565b5b9050919050565b6060600080546106e890613b0d565b80601f016020809104026020016040519081016040528092919081815260200182805461071490613b0d565b80156107615780601f1061073657610100808354040283529160200191610761565b820191906000526020600020905b81548152906001019060200180831161074457829003601f168201915b5050505050905090565b60006107768261221f565b6004600083815260200190815260200160002060009054906101000a900473ffffffffffffffffffffffffffffffffffffffff169050919050565b60006107bc8261103d565b90508073ffffffffffffffffffffffffffffffffffffffff168373ffffffffffffffffffffffffffffffffffffffff16141561082d576040517f08c379a000000000000000000000000000000000000000000000000000000000815260040161082490613bb1565b60405180910390fd5b8073ffffffffffffffffffffffffffffffffffffffff1661084c61226a565b73ffffffffffffffffffffffffffffffffffffffff16148061087b575061087a8161087561226a565b612089565b5b6108ba576040517f08c379a00000000000000000000000000000000000000000000000000000000081526004016108b190613c43565b60405180910390fd5b6108c48383612272565b505050565b6000600880549050905090565b6000600b6000838152602001908152602001600020600101549050919050565b61090761090161226a565b8261232b565b610946576040517f08c379a000000000000000000000000000000000000000000000000000000000815260040161093d90613cd5565b60405180910390fd5b6109518383836123c0565b505050565b60606000600a60009054906101000a900473ffffffffffffffffffffffffffffffffffffffff1690506000600a60009054906101000a900473ffffffffffffffffffffffffffffffffffffffff16905060008273ffffffffffffffffffffffffffffffffffffffff166370a08231306040518263ffffffff1660e01b81526004016109e19190613575565b602060405180830381865afa1580156109fe573d6000803e3d6000fd5b505050506040513d601f19601f82011682018060405250810190610a229190613d0a565b905060008167ffffffffffffffff811115610a4057610a3f61389d565b5b604051908082528060200260200182016040528015610a6e5781602001602082028036833780820191505090505b50905060005b82811015610b2a578373ffffffffffffffffffffffffffffffffffffffff16632f745c5930836040518363ffffffff1660e01b8152600401610ab7929190613d37565b602060405180830381865afa158015610ad4573d6000803e3d6000fd5b505050506040513d601f19601f82011682018060405250810190610af89190613d0a565b828281518110610b0b57610b0a613d60565b5b6020026020010181815250508080610b2290613dbe565b915050610a74565b508094505050505090565b6000610b4083611104565b8210610b81576040517f08c379a0000000000000000000000000000000000000000000000000000000008152600401610b7890613e79565b60405180910390fd5b600660008473ffffffffffffffffffffffffffffffffffffffff1673ffffffffffffffffffffffffffffffffffffffff168152602001908152602001600020600083815260200190815260200160002054905092915050565b610bf5838383604051806020016040528060008152506117da565b505050565b600b6000828152602001908152602001600020600101544210610c52576040517f08c379a0000000000000000000000000000000000000000000000000000000008152600401610c4990613ee5565b60405180910390fd5b60001515600b600083815260200190815260200160002060030160149054906101000a900460ff16151514610cbc576040517f08c379a0000000000000000000000000000000000000000000000000000000008152600401610cb390613f51565b60405180910390fd5b343373ffffffffffffffffffffffffffffffffffffffff163111610d15576040517f08c379a0000000000000000000000000000000000000000000000000000000008152600401610d0c90613fbd565b60405180910390fd5b600b6000828152602001908152602001600020600001543411610d6d576040517f08c379a0000000000000000000000000000000000000000000000000000000008152600401610d6490614029565b60405180910390fd5b600b600082815260200190815260200160002060020160009054906101000a900473ffffffffffffffffffffffffffffffffffffffff1673ffffffffffffffffffffffffffffffffffffffff163373ffffffffffffffffffffffffffffffffffffffff161415610e12576040517f08c379a0000000000000000000000000000000000000000000000000000000008152600401610e0990614095565b60405180910390fd5b6000600b6000838152602001908152602001600020600001541115610f1e57600b600082815260200190815260200160002060000154471015610e8a576040517f08c379a0000000000000000000000000000000000000000000000000000000008152600401610e8190614127565b60405180910390fd5b600b600082815260200190815260200160002060030160009054906101000a900473ffffffffffffffffffffffffffffffffffffffff1673ffffffffffffffffffffffffffffffffffffffff166108fc600b6000848152602001908152602001600020600001549081150290604051600060405180830381858888f19350505050158015610f1c573d6000803e3d6000fd5b505b34600b60008381526020019081526020016000206000018190555033600b600083815260200190815260200160002060030160006101000a81548173ffffffffffffffffffffffffffffffffffffffff021916908373ffffffffffffffffffffffffffffffffffffffff1602179055507f0e54eff26401bf69b81b26f60bd85ef47f5d85275c1d268d84f68d6897431c47813334604051610fc193929190614147565b60405180910390a150565b6000610fd66108c9565b8210611017576040517f08c379a000000000000000000000000000000000000000000000000000000000815260040161100e906141f0565b60405180910390fd5b6008828154811061102b5761102a613d60565b5b90600052602060002001549050919050565b600080611049836126ba565b9050600073ffffffffffffffffffffffffffffffffffffffff168173ffffffffffffffffffffffffffffffffffffffff1614156110bb576040517f08c379a00000000000000000000000000000000000000000000000000000000081526004016110b29061425c565b60405180910390fd5b80915050919050565b6000600b600083815260200190815260200160002060020160009054906101000a900473ffffffffffffffffffffffffffffffffffffffff169050919050565b60008073ffffffffffffffffffffffffffffffffffffffff168273ffffffffffffffffffffffffffffffffffffffff161415611175576040517f08c379a000000000000000000000000000000000000000000000000000000000815260040161116c906142ee565b60405180910390fd5b600360008373ffffffffffffffffffffffffffffffffffffffff1673ffffffffffffffffffffffffffffffffffffffff168152602001908152602001600020549050919050565b6060600180546111cb90613b0d565b80601f01602080910402602001604051908101604052809291908181526020018280546111f790613b0d565b80156112445780601f1061121957610100808354040283529160200191611244565b820191906000526020600020905b81548152906001019060200180831161122757829003601f168201915b5050505050905090565b6000600a60009054906101000a900473ffffffffffffffffffffffffffffffffffffffff16905060001515600b600084815260200190815260200160002060030160149054906101000a900460ff161515146112df576040517f08c379a00000000000000000000000000000000000000000000000000000000081526004016112d69061435a565b60405180910390fd5b600b600083815260200190815260200160002060020160009054906101000a900473ffffffffffffffffffffffffffffffffffffffff1673ffffffffffffffffffffffffffffffffffffffff163373ffffffffffffffffffffffffffffffffffffffff1614611383576040517f08c379a000000000000000000000000000000000000000000000000000000000815260040161137a906143ec565b60405180910390fd5b3073ffffffffffffffffffffffffffffffffffffffff168173ffffffffffffffffffffffffffffffffffffffff16636352211e846040518263ffffffff1660e01b81526004016113d3919061360b565b602060405180830381865afa1580156113f0573d6000803e3d6000fd5b505050506040513d601f19601f820116820180604052508101906114149190614421565b73ffffffffffffffffffffffffffffffffffffffff161461146a576040517f08c379a00000000000000000000000000000000000000000000000000000000081526004016114619061449a565b60405180910390fd5b8073ffffffffffffffffffffffffffffffffffffffff166342842e0e30600b600086815260200190815260200160002060020160009054906101000a900473ffffffffffffffffffffffffffffffffffffffff16856040518463ffffffff1660e01b81526004016114dd939291906144ba565b600060405180830381600087803b1580156114f757600080fd5b505af115801561150b573d6000803e3d6000fd5b505050506000600b6000848152602001908152602001600020600001541180156115985750600073ffffffffffffffffffffffffffffffffffffffff16600b600084815260200190815260200160002060030160009054906101000a900473ffffffffffffffffffffffffffffffffffffffff1673ffffffffffffffffffffffffffffffffffffffff1614155b1561168957600b60008381526020019081526020016000206000015447116115f5576040517f08c379a00000000000000000000000000000000000000000000000000000000081526004016115ec90614127565b60405180910390fd5b600b600083815260200190815260200160002060030160009054906101000a900473ffffffffffffffffffffffffffffffffffffffff1673ffffffffffffffffffffffffffffffffffffffff166108fc600b6000858152602001908152602001600020600001549081150290604051600060405180830381858888f19350505050158015611687573d6000803e3d6000fd5b505b6001600b600084815260200190815260200160002060030160146101000a81548160ff0219169083151502179055505050565b6116ce6116c761226a565b83836126f7565b5050565b6116da6132ea565b600b60008381526020019081526020016000206040518060a001604052908160008201548152602001600182015481526020016002820160009054906101000a900473ffffffffffffffffffffffffffffffffffffffff1673ffffffffffffffffffffffffffffffffffffffff1673ffffffffffffffffffffffffffffffffffffffff1681526020016003820160009054906101000a900473ffffffffffffffffffffffffffffffffffffffff1673ffffffffffffffffffffffffffffffffffffffff1673ffffffffffffffffffffffffffffffffffffffff1681526020016003820160149054906101000a900460ff1615151515815250509050919050565b6117eb6117e561226a565b8361232b565b61182a576040517f08c379a000000000000000000000000000000000000000000000000000000000815260040161182190613cd5565b60405180910390fd5b61183684848484612864565b50505050565b60606118478261221f565b60006118516128c0565b90506000815111611871576040518060200160405280600081525061189c565b8061187b846128d7565b60405160200161188c92919061452d565b6040516020818303038152906040525b915050919050565b6000600a60009054906101000a900473ffffffffffffffffffffffffffffffffffffffff1690508073ffffffffffffffffffffffffffffffffffffffff16636352211e856040518263ffffffff1660e01b8152600401611904919061360b565b602060405180830381865afa158015611921573d6000803e3d6000fd5b505050506040513d601f19601f820116820180604052508101906119459190614421565b73ffffffffffffffffffffffffffffffffffffffff163373ffffffffffffffffffffffffffffffffffffffff16146119b2576040517f08c379a00000000000000000000000000000000000000000000000000000000081526004016119a99061459d565b60405180910390fd5b8073ffffffffffffffffffffffffffffffffffffffff1663e985e9c533306040518363ffffffff1660e01b81526004016119ed9291906145bd565b602060405180830381865afa158015611a0a573d6000803e3d6000fd5b505050506040513d601f19601f82011682018060405250810190611a2e91906145fb565b611a6d576040517f08c379a0000000000000000000000000000000000000000000000000000000008152600401611a6490614674565b60405180910390fd5b82600b600086815260200190815260200160002060000181905550603c82611a959190614694565b42611aa091906146ee565b600b60008681526020019081526020016000206001018190555033600b600086815260200190815260200160002060020160006101000a81548173ffffffffffffffffffffffffffffffffffffffff021916908373ffffffffffffffffffffffffffffffffffffffff1602179055506000600b600086815260200190815260200160002060030160146101000a81548160ff0219169083151502179055508073ffffffffffffffffffffffffffffffffffffffff166323b872dd3330876040518463ffffffff1660e01b8152600401611b7b939291906144ba565b600060405180830381600087803b158015611b9557600080fd5b505af1158015611ba9573d6000803e3d6000fd5b5050505050505050565b6000600a60009054906101000a900473ffffffffffffffffffffffffffffffffffffffff169050600b600083815260200190815260200160002060020160009054906101000a900473ffffffffffffffffffffffffffffffffffffffff1673ffffffffffffffffffffffffffffffffffffffff163373ffffffffffffffffffffffffffffffffffffffff1614611c7e576040517f08c379a0000000000000000000000000000000000000000000000000000000008152600401611c75906143ec565b60405180910390fd5b600b6000838152602001908152602001600020600101544211611cd6576040517f08c379a0000000000000000000000000000000000000000000000000000000008152600401611ccd90614790565b60405180910390fd5b60001515600b600084815260200190815260200160002060030160149054906101000a900460ff16151514611d40576040517f08c379a0000000000000000000000000000000000000000000000000000000008152600401611d37906147fc565b60405180910390fd5b600073ffffffffffffffffffffffffffffffffffffffff16600b600084815260200190815260200160002060030160009054906101000a900473ffffffffffffffffffffffffffffffffffffffff1673ffffffffffffffffffffffffffffffffffffffff161415611de6576040517f08c379a0000000000000000000000000000000000000000000000000000000008152600401611ddd9061488e565b60405180910390fd5b6000600b60008481526020019081526020016000206000015411611e3f576040517f08c379a0000000000000000000000000000000000000000000000000000000008152600401611e36906148fa565b60405180910390fd5b600b6000838152602001908152602001600020600001544711611e97576040517f08c379a0000000000000000000000000000000000000000000000000000000008152600401611e8e90614127565b60405180910390fd5b6001600b600084815260200190815260200160002060030160146101000a81548160ff021916908315150217905550600b600083815260200190815260200160002060020160009054906101000a900473ffffffffffffffffffffffffffffffffffffffff1673ffffffffffffffffffffffffffffffffffffffff166108fc600b6000858152602001908152602001600020600001549081150290604051600060405180830381858888f19350505050158015611f58573d6000803e3d6000fd5b508073ffffffffffffffffffffffffffffffffffffffff166342842e0e30600b600086815260200190815260200160002060030160009054906101000a900473ffffffffffffffffffffffffffffffffffffffff16856040518463ffffffff1660e01b8152600401611fcc939291906144ba565b600060405180830381600087803b158015611fe657600080fd5b505af1158015611ffa573d6000803e3d6000fd5b505050507f448b11a84487e5d344046aea585e329319785d6896f1e7ec1dfa47fb984fd8df82600b600085815260200190815260200160002060030160009054906101000a900473ffffffffffffffffffffffffffffffffffffffff16600b60008681526020019081526020016000206000015460405161207d93929190614147565b60405180910390a15050565b6000600560008473ffffffffffffffffffffffffffffffffffffffff1673ffffffffffffffffffffffffffffffffffffffff16815260200190815260200160002060008373ffffffffffffffffffffffffffffffffffffffff1673ffffffffffffffffffffffffffffffffffffffff16815260200190815260200160002060009054906101000a900460ff16905092915050565b6000600b6000838152602001908152602001600020600001549050919050565b60007f80ac58cd000000000000000000000000000000000000000000000000000000007bffffffffffffffffffffffffffffffffffffffffffffffffffffffff1916827bffffffffffffffffffffffffffffffffffffffffffffffffffffffff1916148061220857507f5b5e139f000000000000000000000000000000000000000000000000000000007bffffffffffffffffffffffffffffffffffffffffffffffffffffffff1916827bffffffffffffffffffffffffffffffffffffffffffffffffffffffff1916145b806122185750612217826129af565b5b9050919050565b61222881612a19565b612267576040517f08c379a000000000000000000000000000000000000000000000000000000000815260040161225e9061425c565b60405180910390fd5b50565b600033905090565b816004600083815260200190815260200160002060006101000a81548173ffffffffffffffffffffffffffffffffffffffff021916908373ffffffffffffffffffffffffffffffffffffffff160217905550808273ffffffffffffffffffffffffffffffffffffffff166122e58361103d565b73ffffffffffffffffffffffffffffffffffffffff167f8c5be1e5ebec7d5bd14f71427d1e84f3dd0314c0f7b2291e5b200ac8c7c3b92560405160405180910390a45050565b6000806123378361103d565b90508073ffffffffffffffffffffffffffffffffffffffff168473ffffffffffffffffffffffffffffffffffffffff16148061237957506123788185612089565b5b806123b757508373ffffffffffffffffffffffffffffffffffffffff1661239f8461076b565b73ffffffffffffffffffffffffffffffffffffffff16145b91505092915050565b8273ffffffffffffffffffffffffffffffffffffffff166123e08261103d565b73ffffffffffffffffffffffffffffffffffffffff1614612436576040517f08c379a000000000000000000000000000000000000000000000000000000000815260040161242d9061498c565b60405180910390fd5b600073ffffffffffffffffffffffffffffffffffffffff168273ffffffffffffffffffffffffffffffffffffffff1614156124a6576040517f08c379a000000000000000000000000000000000000000000000000000000000815260040161249d90614a1e565b60405180910390fd5b6124b38383836001612a5a565b8273ffffffffffffffffffffffffffffffffffffffff166124d38261103d565b73ffffffffffffffffffffffffffffffffffffffff1614612529576040517f08c379a00000000000000000000000000000000000000000000000000000000081526004016125209061498c565b60405180910390fd5b6004600082815260200190815260200160002060006101000a81549073ffffffffffffffffffffffffffffffffffffffff02191690556001600360008573ffffffffffffffffffffffffffffffffffffffff1673ffffffffffffffffffffffffffffffffffffffff168152602001908152602001600020600082825403925050819055506001600360008473ffffffffffffffffffffffffffffffffffffffff1673ffffffffffffffffffffffffffffffffffffffff16815260200190815260200160002060008282540192505081905550816002600083815260200190815260200160002060006101000a81548173ffffffffffffffffffffffffffffffffffffffff021916908373ffffffffffffffffffffffffffffffffffffffff160217905550808273ffffffffffffffffffffffffffffffffffffffff168473ffffffffffffffffffffffffffffffffffffffff167fddf252ad1be2c89b69c2b068fc378daa952ba7f163c4a11628f55a4df523b3ef60405160405180910390a46126b58383836001612bba565b505050565b60006002600083815260200190815260200160002060009054906101000a900473ffffffffffffffffffffffffffffffffffffffff169050919050565b8173ffffffffffffffffffffffffffffffffffffffff168373ffffffffffffffffffffffffffffffffffffffff161415612766576040517f08c379a000000000000000000000000000000000000000000000000000000000815260040161275d90614a8a565b60405180910390fd5b80600560008573ffffffffffffffffffffffffffffffffffffffff1673ffffffffffffffffffffffffffffffffffffffff16815260200190815260200160002060008473ffffffffffffffffffffffffffffffffffffffff1673ffffffffffffffffffffffffffffffffffffffff16815260200190815260200160002060006101000a81548160ff0219169083151502179055508173ffffffffffffffffffffffffffffffffffffffff168373ffffffffffffffffffffffffffffffffffffffff167f17307eab39ab6107e8899845ad3d59bd9653f200f220920489ca2b5937696c318360405161285791906133fb565b60405180910390a3505050565b61286f8484846123c0565b61287b84848484612bc0565b6128ba576040517f08c379a00000000000000000000000000000000000000000000000000000000081526004016128b190614b1c565b60405180910390fd5b50505050565b606060405180602001604052806000815250905090565b6060600060016128e684612d48565b01905060008167ffffffffffffffff8111156129055761290461389d565b5b6040519080825280601f01601f1916602001820160405280156129375781602001600182028036833780820191505090505b509050600082602001820190505b6001156129a4578080600190039150507f3031323334353637383961626364656600000000000000000000000000000000600a86061a8153600a858161298e5761298d614b3c565b5b049450600085141561299f576129a4565b612945565b819350505050919050565b60007f01ffc9a7000000000000000000000000000000000000000000000000000000007bffffffffffffffffffffffffffffffffffffffffffffffffffffffff1916827bffffffffffffffffffffffffffffffffffffffffffffffffffffffff1916149050919050565b60008073ffffffffffffffffffffffffffffffffffffffff16612a3b836126ba565b73ffffffffffffffffffffffffffffffffffffffff1614159050919050565b612a6684848484612e9b565b6001811115612aaa576040517f08c379a0000000000000000000000000000000000000000000000000000000008152600401612aa190614bdd565b60405180910390fd5b6000829050600073ffffffffffffffffffffffffffffffffffffffff168573ffffffffffffffffffffffffffffffffffffffff161415612af257612aed81612fc1565b612b31565b8373ffffffffffffffffffffffffffffffffffffffff168573ffffffffffffffffffffffffffffffffffffffff1614612b3057612b2f858261300a565b5b5b600073ffffffffffffffffffffffffffffffffffffffff168473ffffffffffffffffffffffffffffffffffffffff161415612b7457612b6f81613177565b612bb3565b8473ffffffffffffffffffffffffffffffffffffffff168473ffffffffffffffffffffffffffffffffffffffff1614612bb257612bb18482613248565b5b5b5050505050565b50505050565b6000612be18473ffffffffffffffffffffffffffffffffffffffff166132c7565b15612d3b578373ffffffffffffffffffffffffffffffffffffffff1663150b7a02612c0a61226a565b8786866040518563ffffffff1660e01b8152600401612c2c9493929190614c52565b6020604051808303816000875af1925050508015612c6857506040513d601f19601f82011682018060405250810190612c659190614cb3565b60015b612ceb573d8060008114612c98576040519150601f19603f3d011682016040523d82523d6000602084013e612c9d565b606091505b50600081511415612ce3576040517f08c379a0000000000000000000000000000000000000000000000000000000008152600401612cda90614b1c565b60405180910390fd5b805181602001fd5b63150b7a0260e01b7bffffffffffffffffffffffffffffffffffffffffffffffffffffffff1916817bffffffffffffffffffffffffffffffffffffffffffffffffffffffff191614915050612d40565b600190505b949350505050565b600080600090507a184f03e93ff9f4daa797ed6e38ed64bf6a1f0100000000000000008310612da6577a184f03e93ff9f4daa797ed6e38ed64bf6a1f0100000000000000008381612d9c57612d9b614b3c565b5b0492506040810190505b6d04ee2d6d415b85acef81000000008310612de3576d04ee2d6d415b85acef81000000008381612dd957612dd8614b3c565b5b0492506020810190505b662386f26fc100008310612e1257662386f26fc100008381612e0857612e07614b3c565b5b0492506010810190505b6305f5e1008310612e3b576305f5e1008381612e3157612e30614b3c565b5b0492506008810190505b6127108310612e60576127108381612e5657612e55614b3c565b5b0492506004810190505b60648310612e835760648381612e7957612e78614b3c565b5b0492506002810190505b600a8310612e92576001810190505b80915050919050565b6001811115612fbb57600073ffffffffffffffffffffffffffffffffffffffff168473ffffffffffffffffffffffffffffffffffffffff1614612f2f5780600360008673ffffffffffffffffffffffffffffffffffffffff1673ffffffffffffffffffffffffffffffffffffffff1681526020019081526020016000206000828254612f279190614ce0565b925050819055505b600073ffffffffffffffffffffffffffffffffffffffff168373ffffffffffffffffffffffffffffffffffffffff1614612fba5780600360008573ffffffffffffffffffffffffffffffffffffffff1673ffffffffffffffffffffffffffffffffffffffff1681526020019081526020016000206000828254612fb291906146ee565b925050819055505b5b50505050565b6008805490506009600083815260200190815260200160002081905550600881908060018154018082558091505060019003906000526020600020016000909190919091505550565b6000600161301784611104565b6130219190614ce0565b9050600060076000848152602001908152602001600020549050818114613106576000600660008673ffffffffffffffffffffffffffffffffffffffff1673ffffffffffffffffffffffffffffffffffffffff168152602001908152602001600020600084815260200190815260200160002054905080600660008773ffffffffffffffffffffffffffffffffffffffff1673ffffffffffffffffffffffffffffffffffffffff168152602001908152602001600020600084815260200190815260200160002081905550816007600083815260200190815260200160002081905550505b6007600084815260200190815260200160002060009055600660008573ffffffffffffffffffffffffffffffffffffffff1673ffffffffffffffffffffffffffffffffffffffff16815260200190815260200160002060008381526020019081526020016000206000905550505050565b6000600160088054905061318b9190614ce0565b90506000600960008481526020019081526020016000205490506000600883815481106131bb576131ba613d60565b5b9060005260206000200154905080600883815481106131dd576131dc613d60565b5b90600052602060002001819055508160096000838152602001908152602001600020819055506009600085815260200190815260200160002060009055600880548061322c5761322b614d14565b5b6001900381819060005260206000200160009055905550505050565b600061325383611104565b905081600660008573ffffffffffffffffffffffffffffffffffffffff1673ffffffffffffffffffffffffffffffffffffffff168152602001908152602001600020600083815260200190815260200160002081905550806007600084815260200190815260200160002081905550505050565b6000808273ffffffffffffffffffffffffffffffffffffffff163b119050919050565b6040518060a001604052806000815260200160008152602001600073ffffffffffffffffffffffffffffffffffffffff168152602001600073ffffffffffffffffffffffffffffffffffffffff1681526020016000151581525090565b6000604051905090565b600080fd5b600080fd5b60007fffffffff0000000000000000000000000000000000000000000000000000000082169050919050565b6133908161335b565b811461339b57600080fd5b50565b6000813590506133ad81613387565b92915050565b6000602082840312156133c9576133c8613351565b5b60006133d78482850161339e565b91505092915050565b60008115159050919050565b6133f5816133e0565b82525050565b600060208201905061341060008301846133ec565b92915050565b600081519050919050565b600082825260208201905092915050565b60005b83811015613450578082015181840152602081019050613435565b8381111561345f576000848401525b50505050565b6000601f19601f8301169050919050565b600061348182613416565b61348b8185613421565b935061349b818560208601613432565b6134a481613465565b840191505092915050565b600060208201905081810360008301526134c98184613476565b905092915050565b6000819050919050565b6134e4816134d1565b81146134ef57600080fd5b50565b600081359050613501816134db565b92915050565b60006020828403121561351d5761351c613351565b5b600061352b848285016134f2565b91505092915050565b600073ffffffffffffffffffffffffffffffffffffffff82169050919050565b600061355f82613534565b9050919050565b61356f81613554565b82525050565b600060208201905061358a6000830184613566565b92915050565b61359981613554565b81146135a457600080fd5b50565b6000813590506135b681613590565b92915050565b600080604083850312156135d3576135d2613351565b5b60006135e1858286016135a7565b92505060206135f2858286016134f2565b9150509250929050565b613605816134d1565b82525050565b600060208201905061362060008301846135fc565b92915050565b60008060006060848603121561363f5761363e613351565b5b600061364d868287016135a7565b935050602061365e868287016135a7565b925050604061366f868287016134f2565b9150509250925092565b600081519050919050565b600082825260208201905092915050565b6000819050602082019050919050565b6136ae816134d1565b82525050565b60006136c083836136a5565b60208301905092915050565b6000602082019050919050565b60006136e482613679565b6136ee8185613684565b93506136f983613695565b8060005b8381101561372a57815161371188826136b4565b975061371c836136cc565b9250506001810190506136fd565b5085935050505092915050565b6000602082019050818103600083015261375181846136d9565b905092915050565b60006020828403121561376f5761376e613351565b5b600061377d848285016135a7565b91505092915050565b61378f816133e0565b811461379a57600080fd5b50565b6000813590506137ac81613786565b92915050565b600080604083850312156137c9576137c8613351565b5b60006137d7858286016135a7565b92505060206137e88582860161379d565b9150509250929050565b6137fb81613554565b82525050565b61380a816133e0565b82525050565b60a08201600082015161382660008501826136a5565b50602082015161383960208501826136a5565b50604082015161384c60408501826137f2565b50606082015161385f60608501826137f2565b5060808201516138726080850182613801565b50505050565b600060a08201905061388d6000830184613810565b92915050565b600080fd5b600080fd5b7f4e487b7100000000000000000000000000000000000000000000000000000000600052604160045260246000fd5b6138d582613465565b810181811067ffffffffffffffff821117156138f4576138f361389d565b5b80604052505050565b6000613907613347565b905061391382826138cc565b919050565b600067ffffffffffffffff8211156139335761393261389d565b5b61393c82613465565b9050602081019050919050565b82818337600083830152505050565b600061396b61396684613918565b6138fd565b90508281526020810184848401111561398757613986613898565b5b613992848285613949565b509392505050565b600082601f8301126139af576139ae613893565b5b81356139bf848260208601613958565b91505092915050565b600080600080608085870312156139e2576139e1613351565b5b60006139f0878288016135a7565b9450506020613a01878288016135a7565b9350506040613a12878288016134f2565b925050606085013567ffffffffffffffff811115613a3357613a32613356565b5b613a3f8782880161399a565b91505092959194509250565b600080600060608486031215613a6457613a63613351565b5b6000613a72868287016134f2565b9350506020613a83868287016134f2565b9250506040613a94868287016134f2565b9150509250925092565b60008060408385031215613ab557613ab4613351565b5b6000613ac3858286016135a7565b9250506020613ad4858286016135a7565b9150509250929050565b7f4e487b7100000000000000000000000000000000000000000000000000000000600052602260045260246000fd5b60006002820490506001821680613b2557607f821691505b60208210811415613b3957613b38613ade565b5b50919050565b7f4552433732313a20617070726f76616c20746f2063757272656e74206f776e6560008201527f7200000000000000000000000000000000000000000000000000000000000000602082015250565b6000613b9b602183613421565b9150613ba682613b3f565b604082019050919050565b60006020820190508181036000830152613bca81613b8e565b9050919050565b7f4552433732313a20617070726f76652063616c6c6572206973206e6f7420746f60008201527f6b656e206f776e6572206f7220617070726f76656420666f7220616c6c000000602082015250565b6000613c2d603d83613421565b9150613c3882613bd1565b604082019050919050565b60006020820190508181036000830152613c5c81613c20565b9050919050565b7f4552433732313a2063616c6c6572206973206e6f7420746f6b656e206f776e6560008201527f72206f7220617070726f76656400000000000000000000000000000000000000602082015250565b6000613cbf602d83613421565b9150613cca82613c63565b604082019050919050565b60006020820190508181036000830152613cee81613cb2565b9050919050565b600081519050613d04816134db565b92915050565b600060208284031215613d2057613d1f613351565b5b6000613d2e84828501613cf5565b91505092915050565b6000604082019050613d4c6000830185613566565b613d5960208301846135fc565b9392505050565b7f4e487b7100000000000000000000000000000000000000000000000000000000600052603260045260246000fd5b7f4e487b7100000000000000000000000000000000000000000000000000000000600052601160045260246000fd5b6000613dc9826134d1565b91507fffffffffffffffffffffffffffffffffffffffffffffffffffffffffffffffff821415613dfc57613dfb613d8f565b5b600182019050919050565b7f455243373231456e756d657261626c653a206f776e657220696e646578206f7560008201527f74206f6620626f756e6473000000000000000000000000000000000000000000602082015250565b6000613e63602b83613421565b9150613e6e82613e07565b604082019050919050565b60006020820190508181036000830152613e9281613e56565b9050919050565b7f6865742074686f69206769616e20646175206769610000000000000000000000600082015250565b6000613ecf601583613421565b9150613eda82613e99565b602082019050919050565b60006020820190508181036000830152613efe81613ec2565b9050919050565b7f6461752067696120646120686f616e207468616e680000000000000000000000600082015250565b6000613f3b601583613421565b9150613f4682613f05565b602082019050919050565b60006020820190508181036000830152613f6a81613f2e565b9050919050565b7f62616e206b686f6e67206475207469656e206465206461752067696100000000600082015250565b6000613fa7601c83613421565b9150613fb282613f71565b602082019050919050565b60006020820190508181036000830152613fd681613f9a565b9050919050565b7f676961206e686f20686f6e20676961206869656e207461690000000000000000600082015250565b6000614013601883613421565b915061401e82613fdd565b602082019050919050565b6000602082019050818103600083015261404281614006565b9050919050565b7f43616e206e6f7420626964206f6e20796f7572206f776e2061756374696f6e00600082015250565b600061407f601f83613421565b915061408a82614049565b602082019050919050565b600060208201905081810360008301526140ae81614072565b9050919050565b7f536f20647520686f7020646f6e67206b686f6e6720647520646520636875796560008201527f6e207469656e0000000000000000000000000000000000000000000000000000602082015250565b6000614111602683613421565b915061411c826140b5565b604082019050919050565b6000602082019050818103600083015261414081614104565b9050919050565b600060608201905061415c60008301866135fc565b6141696020830185613566565b61417660408301846135fc565b949350505050565b7f455243373231456e756d657261626c653a20676c6f62616c20696e646578206f60008201527f7574206f6620626f756e64730000000000000000000000000000000000000000602082015250565b60006141da602c83613421565b91506141e58261417e565b604082019050919050565b60006020820190508181036000830152614209816141cd565b9050919050565b7f4552433732313a20696e76616c696420746f6b656e2049440000000000000000600082015250565b6000614246601883613421565b915061425182614210565b602082019050919050565b6000602082019050818103600083015261427581614239565b9050919050565b7f4552433732313a2061646472657373207a65726f206973206e6f74206120766160008201527f6c6964206f776e65720000000000000000000000000000000000000000000000602082015250565b60006142d8602983613421565b91506142e38261427c565b604082019050919050565b60006020820190508181036000830152614307816142cb565b9050919050565b7f64617520676961206461206b6574207468756300000000000000000000000000600082015250565b6000614344601383613421565b915061434f8261430e565b602082019050919050565b6000602082019050818103600083015261437381614337565b9050919050565b7f63686920636f206e67756f692062616e206d6f6920636f20717579656e206b6560008201527f7420746875632064617520676961000000000000000000000000000000000000602082015250565b60006143d6602e83613421565b91506143e18261437a565b604082019050919050565b60006020820190508181036000830152614405816143c9565b9050919050565b60008151905061441b81613590565b92915050565b60006020828403121561443757614436613351565b5b60006144458482850161440c565b91505092915050565b7f686f7020646f6e67206b686f6e6720636f2074726f6e6720636f6e7472616374600082015250565b6000614484602083613421565b915061448f8261444e565b602082019050919050565b600060208201905081810360008301526144b381614477565b9050919050565b60006060820190506144cf6000830186613566565b6144dc6020830185613566565b6144e960408301846135fc565b949350505050565b600081905092915050565b600061450782613416565b61451181856144f1565b9350614521818560208601613432565b80840191505092915050565b600061453982856144fc565b915061454582846144fc565b91508190509392505050565b7f6b686f6e6720706861692063687520736f206875750000000000000000000000600082015250565b6000614587601583613421565b915061459282614551565b602082019050919050565b600060208201905081810360008301526145b68161457a565b9050919050565b60006040820190506145d26000830185613566565b6145df6020830184613566565b9392505050565b6000815190506145f581613786565b92915050565b60006020828403121561461157614610613351565b5b600061461f848285016145e6565b91505092915050565b7f6368756120617070726f76650000000000000000000000000000000000000000600082015250565b600061465e600c83613421565b915061466982614628565b602082019050919050565b6000602082019050818103600083015261468d81614651565b9050919050565b600061469f826134d1565b91506146aa836134d1565b9250817fffffffffffffffffffffffffffffffffffffffffffffffffffffffffffffffff04831182151516156146e3576146e2613d8f565b5b828202905092915050565b60006146f9826134d1565b9150614704836134d1565b9250827fffffffffffffffffffffffffffffffffffffffffffffffffffffffffffffffff0382111561473957614738613d8f565b5b828201905092915050565b7f636875612064656e206865742074686f69206769616e20646175206769610000600082015250565b600061477a601e83613421565b915061478582614744565b602082019050919050565b600060208201905081810360008301526147a98161476d565b9050919050565b7f706869656e2064617520676961206461206b6574207468756300000000000000600082015250565b60006147e6601983613421565b91506147f1826147b0565b602082019050919050565b60006020820190508181036000830152614815816147d9565b9050919050565b7f6e67756f69206e68616e206e66742070686169206c612064696120636869206860008201527f6f70206c65000000000000000000000000000000000000000000000000000000602082015250565b6000614878602583613421565b91506148838261481c565b604082019050919050565b600060208201905081810360008301526148a78161486b565b9050919050565b7f676961206e66742070686169203e203000000000000000000000000000000000600082015250565b60006148e4601083613421565b91506148ef826148ae565b602082019050919050565b60006020820190508181036000830152614913816148d7565b9050919050565b7f4552433732313a207472616e736665722066726f6d20696e636f72726563742060008201527f6f776e6572000000000000000000000000000000000000000000000000000000602082015250565b6000614976602583613421565b91506149818261491a565b604082019050919050565b600060208201905081810360008301526149a581614969565b9050919050565b7f4552433732313a207472616e7366657220746f20746865207a65726f2061646460008201527f7265737300000000000000000000000000000000000000000000000000000000602082015250565b6000614a08602483613421565b9150614a13826149ac565b604082019050919050565b60006020820190508181036000830152614a37816149fb565b9050919050565b7f4552433732313a20617070726f766520746f2063616c6c657200000000000000600082015250565b6000614a74601983613421565b9150614a7f82614a3e565b602082019050919050565b60006020820190508181036000830152614aa381614a67565b9050919050565b7f4552433732313a207472616e7366657220746f206e6f6e20455243373231526560008201527f63656976657220696d706c656d656e7465720000000000000000000000000000602082015250565b6000614b06603283613421565b9150614b1182614aaa565b604082019050919050565b60006020820190508181036000830152614b3581614af9565b9050919050565b7f4e487b7100000000000000000000000000000000000000000000000000000000600052601260045260246000fd5b7f455243373231456e756d657261626c653a20636f6e736563757469766520747260008201527f616e7366657273206e6f7420737570706f727465640000000000000000000000602082015250565b6000614bc7603583613421565b9150614bd282614b6b565b604082019050919050565b60006020820190508181036000830152614bf681614bba565b9050919050565b600081519050919050565b600082825260208201905092915050565b6000614c2482614bfd565b614c2e8185614c08565b9350614c3e818560208601613432565b614c4781613465565b840191505092915050565b6000608082019050614c676000830187613566565b614c746020830186613566565b614c8160408301856135fc565b8181036060830152614c938184614c19565b905095945050505050565b600081519050614cad81613387565b92915050565b600060208284031215614cc957614cc8613351565b5b6000614cd784828501614c9e565b91505092915050565b6000614ceb826134d1565b9150614cf6836134d1565b925082821015614d0957614d08613d8f565b5b828203905092915050565b7f4e487b7100000000000000000000000000000000000000000000000000000000600052603160045260246000fdfea2646970667358221220931480cacfdcfda279e4dd122c4719ae73fe08a73d0c0865ebc8690e3ce7a30064736f6c634300080a0033",
  "linkReferences": {},
  "deployedLinkReferences": {}
}