{
  "_format": "hh-sol-artifact-1",
  "contractName": "Marketplace",
  "sourceName": "contracts/marketplace.sol",
  "abi": [
    {
      "inputs": [
        {
          "internalType": "address",
          "name": "nftAddress",
          "type": "address"
        }
      ],
      "stateMutability": "nonpayable",
      "type": "constructor"
    },
    {
      "anonymous": false,
      "inputs": [
        {
          "indexed": true,
          "internalType": "address",
          "name": "owner",
          "type": "address"
        },
        {
          "indexed": true,
          "internalType": "address",
          "name": "approved",
          "type": "address"
        },
        {
          "indexed": true,
          "internalType": "uint256",
          "name": "tokenId",
          "type": "uint256"
        }
      ],
      "name": "Approval",
      "type": "event"
    },
    {
      "anonymous": false,
      "inputs": [
        {
          "indexed": true,
          "internalType": "address",
          "name": "owner",
          "type": "address"
        },
        {
          "indexed": true,
          "internalType": "address",
          "name": "operator",
          "type": "address"
        },
        {
          "indexed": false,
          "internalType": "bool",
          "name": "approved",
          "type": "bool"
        }
      ],
      "name": "ApprovalForAll",
      "type": "event"
    },
    {
      "anonymous": false,
      "inputs": [
        {
          "indexed": false,
          "internalType": "uint256",
          "name": "tokenId",
          "type": "uint256"
        },
        {
          "indexed": false,
          "internalType": "address",
          "name": "winner",
          "type": "address"
        },
        {
          "indexed": false,
          "internalType": "uint256",
          "name": "amount",
          "type": "uint256"
        }
      ],
      "name": "AuctionFinished",
      "type": "event"
    },
    {
      "anonymous": false,
      "inputs": [
        {
          "indexed": false,
          "internalType": "uint256",
          "name": "tokenId",
          "type": "uint256"
        },
        {
          "indexed": false,
          "internalType": "address",
          "name": "bidder",
          "type": "address"
        },
        {
          "indexed": false,
          "internalType": "uint256",
          "name": "amount",
          "type": "uint256"
        }
      ],
      "name": "BidPlaced",
      "type": "event"
    },
    {
      "anonymous": false,
      "inputs": [
        {
          "indexed": true,
          "internalType": "address",
          "name": "from",
          "type": "address"
        },
        {
          "indexed": true,
          "internalType": "address",
          "name": "to",
          "type": "address"
        },
        {
          "indexed": true,
          "internalType": "uint256",
          "name": "tokenId",
          "type": "uint256"
        }
      ],
      "name": "Transfer",
      "type": "event"
    },
    {
      "stateMutability": "payable",
      "type": "fallback"
    },
    {
      "inputs": [
        {
          "internalType": "address",
          "name": "to",
          "type": "address"
        },
        {
          "internalType": "uint256",
          "name": "tokenId",
          "type": "uint256"
        }
      ],
      "name": "approve",
      "outputs": [],
      "stateMutability": "nonpayable",
      "type": "function"
    },
    {
      "inputs": [
        {
          "internalType": "address",
          "name": "owner",
          "type": "address"
        }
      ],
      "name": "balanceOf",
      "outputs": [
        {
          "internalType": "uint256",
          "name": "",
          "type": "uint256"
        }
      ],
      "stateMutability": "view",
      "type": "function"
    },
    {
      "inputs": [
        {
          "internalType": "uint256",
          "name": "tokenId",
          "type": "uint256"
        }
      ],
      "name": "bid",
      "outputs": [],
      "stateMutability": "payable",
      "type": "function"
    },
    {
      "inputs": [
        {
          "internalType": "uint256",
          "name": "tokenId",
          "type": "uint256"
        }
      ],
      "name": "cancelAuction",
      "outputs": [],
      "stateMutability": "nonpayable",
      "type": "function"
    },
    {
      "inputs": [
        {
          "internalType": "uint256",
          "name": "tokenId",
          "type": "uint256"
        },
        {
          "internalType": "uint256",
          "name": "price",
          "type": "uint256"
        },
        {
          "internalType": "uint256",
          "name": "time",
          "type": "uint256"
        }
      ],
      "name": "createAuction",
      "outputs": [],
      "stateMutability": "nonpayable",
      "type": "function"
    },
    {
      "inputs": [
        {
          "internalType": "uint256",
          "name": "tokenId",
          "type": "uint256"
        }
      ],
      "name": "finishAuction",
      "outputs": [],
      "stateMutability": "nonpayable",
      "type": "function"
    },
    {
      "inputs": [
        {
          "internalType": "uint256",
          "name": "tokenId",
          "type": "uint256"
        }
      ],
      "name": "getApproved",
      "outputs": [
        {
          "internalType": "address",
          "name": "",
          "type": "address"
        }
      ],
      "stateMutability": "view",
      "type": "function"
    },
    {
      "inputs": [
        {
          "internalType": "uint256",
          "name": "tokenId",
          "type": "uint256"
        }
      ],
      "name": "getInfoAuction",
      "outputs": [
        {
          "components": [
            {
              "internalType": "uint256",
              "name": "_highestBid",
              "type": "uint256"
            },
            {
              "internalType": "uint256",
              "name": "_time",
              "type": "uint256"
            },
            {
              "internalType": "address",
              "name": "_auctioneer",
              "type": "address"
            },
            {
              "internalType": "address",
              "name": "_highestBidder",
              "type": "address"
            },
            {
              "internalType": "bool",
              "name": "completed",
              "type": "bool"
            }
          ],
          "internalType": "struct Marketplace.NftAuction",
          "name": "nft",
          "type": "tuple"
        }
      ],
      "stateMutability": "view",
      "type": "function"
    },
    {
      "inputs": [
        {
          "internalType": "uint256",
          "name": "tokenId",
          "type": "uint256"
        }
      ],
      "name": "getInfoAuctionAuctioneer",
      "outputs": [
        {
          "internalType": "address",
          "name": "",
          "type": "address"
        }
      ],
      "stateMutability": "view",
      "type": "function"
    },
    {
      "inputs": [
        {
          "internalType": "uint256",
          "name": "tokenId",
          "type": "uint256"
        }
      ],
      "name": "getInfoAuctionHighestBid",
      "outputs": [
        {
          "internalType": "uint256",
          "name": "",
          "type": "uint256"
        }
      ],
      "stateMutability": "view",
      "type": "function"
    },
    {
      "inputs": [
        {
          "internalType": "uint256",
          "name": "tokenId",
          "type": "uint256"
        }
      ],
      "name": "getInfoAuctionTime",
      "outputs": [
        {
          "internalType": "uint256",
          "name": "",
          "type": "uint256"
        }
      ],
      "stateMutability": "view",
      "type": "function"
    },
    {
      "inputs": [
        {
          "internalType": "address",
          "name": "owner",
          "type": "address"
        },
        {
          "internalType": "address",
          "name": "operator",
          "type": "address"
        }
      ],
      "name": "isApprovedForAll",
      "outputs": [
        {
          "internalType": "bool",
          "name": "",
          "type": "bool"
        }
      ],
      "stateMutability": "view",
      "type": "function"
    },
    {
      "inputs": [],
      "name": "listAuction",
      "outputs": [
        {
          "internalType": "uint256[]",
          "name": "tokenIds",
          "type": "uint256[]"
        }
      ],
      "stateMutability": "view",
      "type": "function"
    },
    {
      "inputs": [],
      "name": "name",
      "outputs": [
        {
          "internalType": "string",
          "name": "",
          "type": "string"
        }
      ],
      "stateMutability": "view",
      "type": "function"
    },
    {
      "inputs": [
        {
          "internalType": "uint256",
          "name": "tokenId",
          "type": "uint256"
        }
      ],
      "name": "ownerOf",
      "outputs": [
        {
          "internalType": "address",
          "name": "",
          "type": "address"
        }
      ],
      "stateMutability": "view",
      "type": "function"
    },
    {
      "inputs": [
        {
          "internalType": "address",
          "name": "from",
          "type": "address"
        },
        {
          "internalType": "address",
          "name": "to",
          "type": "address"
        },
        {
          "internalType": "uint256",
          "name": "tokenId",
          "type": "uint256"
        }
      ],
      "name": "safeTransferFrom",
      "outputs": [],
      "stateMutability": "nonpayable",
      "type": "function"
    },
    {
      "inputs": [
        {
          "internalType": "address",
          "name": "from",
          "type": "address"
        },
        {
          "internalType": "address",
          "name": "to",
          "type": "address"
        },
        {
          "internalType": "uint256",
          "name": "tokenId",
          "type": "uint256"
        },
        {
          "internalType": "bytes",
          "name": "data",
          "type": "bytes"
        }
      ],
      "name": "safeTransferFrom",
      "outputs": [],
      "stateMutability": "nonpayable",
      "type": "function"
    },
    {
      "inputs": [
        {
          "internalType": "address",
          "name": "operator",
          "type": "address"
        },
        {
          "internalType": "bool",
          "name": "approved",
          "type": "bool"
        }
      ],
      "name": "setApprovalForAll",
      "outputs": [],
      "stateMutability": "nonpayable",
      "type": "function"
    },
    {
      "inputs": [
        {
          "internalType": "bytes4",
          "name": "interfaceId",
          "type": "bytes4"
        }
      ],
      "name": "supportsInterface",
      "outputs": [
        {
          "internalType": "bool",
          "name": "",
          "type": "bool"
        }
      ],
      "stateMutability": "view",
      "type": "function"
    },
    {
      "inputs": [],
      "name": "symbol",
      "outputs": [
        {
          "internalType": "string",
          "name": "",
          "type": "string"
        }
      ],
      "stateMutability": "view",
      "type": "function"
    },
    {
      "inputs": [
        {
          "internalType": "uint256",
          "name": "index",
          "type": "uint256"
        }
      ],
      "name": "tokenByIndex",
      "outputs": [
        {
          "internalType": "uint256",
          "name": "",
          "type": "uint256"
        }
      ],
      "stateMutability": "view",
      "type": "function"
    },
    {
      "inputs": [
        {
          "internalType": "address",
          "name": "owner",
          "type": "address"
        },
        {
          "internalType": "uint256",
          "name": "index",
          "type": "uint256"
        }
      ],
      "name": "tokenOfOwnerByIndex",
      "outputs": [
        {
          "internalType": "uint256",
          "name": "",
          "type": "uint256"
        }
      ],
      "stateMutability": "view",
      "type": "function"
    },
    {
      "inputs": [
        {
          "internalType": "uint256",
          "name": "tokenId",
          "type": "uint256"
        }
      ],
      "name": "tokenURI",
      "outputs": [
        {
          "internalType": "string",
          "name": "",
          "type": "string"
        }
      ],
      "stateMutability": "view",
      "type": "function"
    },
    {
      "inputs": [],
      "name": "totalSupply",
      "outputs": [
        {
          "internalType": "uint256",
          "name": "",
          "type": "uint256"
        }
      ],
      "stateMutability": "view",
      "type": "function"
    },
    {
      "inputs": [
        {
          "internalType": "address",
          "name": "from",
          "type": "address"
        },
        {
          "internalType": "address",
          "name": "to",
          "type": "address"
        },
        {
          "internalType": "uint256",
          "name": "tokenId",
          "type": "uint256"
        }
      ],
      "name": "transferFrom",
      "outputs": [],
      "stateMutability": "nonpayable",
      "type": "function"
    },
    {
      "stateMutability": "payable",
      "type": "receive"
    }
  ],
  "bytecode": "0x60806040523480156200001157600080fd5b50604051620050af380380620050af833981810160405281019062000037919062000239565b6040518060400160405280601081526020017f4b696c6e204d61726b6574706c616365000000000000000000000000000000008152506040518060400160405280600481526020017f4b4c4159000000000000000000000000000000000000000000000000000000008152508160009080519060200190620000bb9291906200011f565b508060019080519060200190620000d49291906200011f565b50505080600a60006101000a81548173ffffffffffffffffffffffffffffffffffffffff021916908373ffffffffffffffffffffffffffffffffffffffff16021790555050620002d0565b8280546200012d906200029a565b90600052602060002090601f0160209004810192826200015157600085556200019d565b82601f106200016c57805160ff19168380011785556200019d565b828001600101855582156200019d579182015b828111156200019c5782518255916020019190600101906200017f565b5b509050620001ac9190620001b0565b5090565b5b80821115620001cb576000816000905550600101620001b1565b5090565b600080fd5b600073ffffffffffffffffffffffffffffffffffffffff82169050919050565b60006200020182620001d4565b9050919050565b6200021381620001f4565b81146200021f57600080fd5b50565b600081519050620002338162000208565b92915050565b600060208284031215620002525762000251620001cf565b5b6000620002628482850162000222565b91505092915050565b7f4e487b7100000000000000000000000000000000000000000000000000000000600052602260045260246000fd5b60006002820490506001821680620002b357607f821691505b60208210811415620002ca57620002c96200026b565b5b50919050565b614dcf80620002e06000396000f3fe60806040526004361061016a5760003560e01c80636352211e116100d1578063a838b72e1161008a578063cda4beef11610064578063cda4beef14610593578063cf266ed0146105bc578063e985e9c5146105e5578063fe919c831461062257610171565b8063a838b72e146104f0578063b88d4fde1461052d578063c87b56dd1461055657610171565b80636352211e146103bc5780636c8a451c146103f957806370a082311461043657806395d89b411461047357806396b5a7551461049e578063a22cb465146104c757610171565b806323b872dd1161012357806323b872dd146102a95780632cf6856f146102d25780632f745c59146102fd57806342842e0e1461033a578063454a2ab3146103635780634f6ccce71461037f57610171565b806301ffc9a71461017357806306fdde03146101b0578063081812fc146101db578063095ea7b31461021857806318160ddd146102415780631acb17461461026c57610171565b3661017157005b005b34801561017f57600080fd5b5061019a60048036038101906101959190613409565b61065f565b6040516101a79190613451565b60405180910390f35b3480156101bc57600080fd5b506101c56106d9565b6040516101d29190613505565b60405180910390f35b3480156101e757600080fd5b5061020260048036038101906101fd919061355d565b61076b565b60405161020f91906135cb565b60405180910390f35b34801561022457600080fd5b5061023f600480360381019061023a9190613612565b6107b1565b005b34801561024d57600080fd5b506102566108c9565b6040516102639190613661565b60405180910390f35b34801561027857600080fd5b50610293600480360381019061028e919061355d565b6108d6565b6040516102a09190613661565b60405180910390f35b3480156102b557600080fd5b506102d060048036038101906102cb919061367c565b6108f6565b005b3480156102de57600080fd5b506102e7610956565b6040516102f4919061378d565b60405180910390f35b34801561030957600080fd5b50610324600480360381019061031f9190613612565b610b35565b6040516103319190613661565b60405180910390f35b34801561034657600080fd5b50610361600480360381019061035c919061367c565b610bda565b005b61037d6004803603810190610378919061355d565b610bfa565b005b34801561038b57600080fd5b506103a660048036038101906103a1919061355d565b610fcc565b6040516103b39190613661565b60405180910390f35b3480156103c857600080fd5b506103e360048036038101906103de919061355d565b61103d565b6040516103f091906135cb565b60405180910390f35b34801561040557600080fd5b50610420600480360381019061041b919061355d565b6110c4565b60405161042d91906135cb565b60405180910390f35b34801561044257600080fd5b5061045d600480360381019061045891906137af565b611104565b60405161046a9190613661565b60405180910390f35b34801561047f57600080fd5b506104886111bc565b6040516104959190613505565b60405180910390f35b3480156104aa57600080fd5b506104c560048036038101906104c0919061355d565b61124e565b005b3480156104d357600080fd5b506104ee60048036038101906104e99190613808565b6116bc565b005b3480156104fc57600080fd5b506105176004803603810190610512919061355d565b6116d2565b60405161052491906138ce565b60405180910390f35b34801561053957600080fd5b50610554600480360381019061054f9190613a1e565b6117da565b005b34801561056257600080fd5b5061057d6004803603810190610578919061355d565b61183c565b60405161058a9190613505565b60405180910390f35b34801561059f57600080fd5b506105ba60048036038101906105b59190613aa1565b6118a4565b005b3480156105c857600080fd5b506105e360048036038101906105de919061355d565b611c09565b005b3480156105f157600080fd5b5061060c60048036038101906106079190613af4565b6120df565b6040516106199190613451565b60405180910390f35b34801561062e57600080fd5b506106496004803603810190610644919061355d565b612173565b6040516106569190613661565b60405180910390f35b60007f780e9d63000000000000000000000000000000000000000000000000000000007bffffffffffffffffffffffffffffffffffffffffffffffffffffffff1916827bffffffffffffffffffffffffffffffffffffffffffffffffffffffff191614806106d257506106d182612193565b5b9050919050565b6060600080546106e890613b63565b80601f016020809104026020016040519081016040528092919081815260200182805461071490613b63565b80156107615780601f1061073657610100808354040283529160200191610761565b820191906000526020600020905b81548152906001019060200180831161074457829003601f168201915b5050505050905090565b600061077682612275565b6004600083815260200190815260200160002060009054906101000a900473ffffffffffffffffffffffffffffffffffffffff169050919050565b60006107bc8261103d565b90508073ffffffffffffffffffffffffffffffffffffffff168373ffffffffffffffffffffffffffffffffffffffff16141561082d576040517f08c379a000000000000000000000000000000000000000000000000000000000815260040161082490613c07565b60405180910390fd5b8073ffffffffffffffffffffffffffffffffffffffff1661084c6122c0565b73ffffffffffffffffffffffffffffffffffffffff16148061087b575061087a816108756122c0565b6120df565b5b6108ba576040517f08c379a00000000000000000000000000000000000000000000000000000000081526004016108b190613c99565b60405180910390fd5b6108c483836122c8565b505050565b6000600880549050905090565b6000600b6000838152602001908152602001600020600101549050919050565b6109076109016122c0565b82612381565b610946576040517f08c379a000000000000000000000000000000000000000000000000000000000815260040161093d90613d2b565b60405180910390fd5b610951838383612416565b505050565b60606000600a60009054906101000a900473ffffffffffffffffffffffffffffffffffffffff1690506000600a60009054906101000a900473ffffffffffffffffffffffffffffffffffffffff16905060008273ffffffffffffffffffffffffffffffffffffffff166370a08231306040518263ffffffff1660e01b81526004016109e191906135cb565b602060405180830381865afa1580156109fe573d6000803e3d6000fd5b505050506040513d601f19601f82011682018060405250810190610a229190613d60565b905060008167ffffffffffffffff811115610a4057610a3f6138f3565b5b604051908082528060200260200182016040528015610a6e5781602001602082028036833780820191505090505b50905060005b82811015610b2a578373ffffffffffffffffffffffffffffffffffffffff16632f745c5930836040518363ffffffff1660e01b8152600401610ab7929190613d8d565b602060405180830381865afa158015610ad4573d6000803e3d6000fd5b505050506040513d601f19601f82011682018060405250810190610af89190613d60565b828281518110610b0b57610b0a613db6565b5b6020026020010181815250508080610b2290613e14565b915050610a74565b508094505050505090565b6000610b4083611104565b8210610b81576040517f08c379a0000000000000000000000000000000000000000000000000000000008152600401610b7890613ecf565b60405180910390fd5b600660008473ffffffffffffffffffffffffffffffffffffffff1673ffffffffffffffffffffffffffffffffffffffff168152602001908152602001600020600083815260200190815260200160002054905092915050565b610bf5838383604051806020016040528060008152506117da565b505050565b600b6000828152602001908152602001600020600101544210610c52576040517f08c379a0000000000000000000000000000000000000000000000000000000008152600401610c4990613f3b565b60405180910390fd5b60001515600b600083815260200190815260200160002060030160149054906101000a900460ff16151514610cbc576040517f08c379a0000000000000000000000000000000000000000000000000000000008152600401610cb390613fa7565b60405180910390fd5b343373ffffffffffffffffffffffffffffffffffffffff163111610d15576040517f08c379a0000000000000000000000000000000000000000000000000000000008152600401610d0c90614013565b60405180910390fd5b600b6000828152602001908152602001600020600001543411610d6d576040517f08c379a0000000000000000000000000000000000000000000000000000000008152600401610d649061407f565b60405180910390fd5b600b600082815260200190815260200160002060020160009054906101000a900473ffffffffffffffffffffffffffffffffffffffff1673ffffffffffffffffffffffffffffffffffffffff163373ffffffffffffffffffffffffffffffffffffffff161415610e12576040517f08c379a0000000000000000000000000000000000000000000000000000000008152600401610e09906140eb565b60405180910390fd5b6000600b6000838152602001908152602001600020600001541115610f1e57600b600082815260200190815260200160002060000154471015610e8a576040517f08c379a0000000000000000000000000000000000000000000000000000000008152600401610e819061417d565b60405180910390fd5b600b600082815260200190815260200160002060030160009054906101000a900473ffffffffffffffffffffffffffffffffffffffff1673ffffffffffffffffffffffffffffffffffffffff166108fc600b6000848152602001908152602001600020600001549081150290604051600060405180830381858888f19350505050158015610f1c573d6000803e3d6000fd5b505b34600b60008381526020019081526020016000206000018190555033600b600083815260200190815260200160002060030160006101000a81548173ffffffffffffffffffffffffffffffffffffffff021916908373ffffffffffffffffffffffffffffffffffffffff1602179055507f0e54eff26401bf69b81b26f60bd85ef47f5d85275c1d268d84f68d6897431c47813334604051610fc19392919061419d565b60405180910390a150565b6000610fd66108c9565b8210611017576040517f08c379a000000000000000000000000000000000000000000000000000000000815260040161100e90614246565b60405180910390fd5b6008828154811061102b5761102a613db6565b5b90600052602060002001549050919050565b60008061104983612710565b9050600073ffffffffffffffffffffffffffffffffffffffff168173ffffffffffffffffffffffffffffffffffffffff1614156110bb576040517f08c379a00000000000000000000000000000000000000000000000000000000081526004016110b2906142b2565b60405180910390fd5b80915050919050565b6000600b600083815260200190815260200160002060020160009054906101000a900473ffffffffffffffffffffffffffffffffffffffff169050919050565b60008073ffffffffffffffffffffffffffffffffffffffff168273ffffffffffffffffffffffffffffffffffffffff161415611175576040517f08c379a000000000000000000000000000000000000000000000000000000000815260040161116c90614344565b60405180910390fd5b600360008373ffffffffffffffffffffffffffffffffffffffff1673ffffffffffffffffffffffffffffffffffffffff168152602001908152602001600020549050919050565b6060600180546111cb90613b63565b80601f01602080910402602001604051908101604052809291908181526020018280546111f790613b63565b80156112445780601f1061121957610100808354040283529160200191611244565b820191906000526020600020905b81548152906001019060200180831161122757829003601f168201915b5050505050905090565b6000600a60009054906101000a900473ffffffffffffffffffffffffffffffffffffffff16905060001515600b600084815260200190815260200160002060030160149054906101000a900460ff161515146112df576040517f08c379a00000000000000000000000000000000000000000000000000000000081526004016112d6906143b0565b60405180910390fd5b600b600083815260200190815260200160002060020160009054906101000a900473ffffffffffffffffffffffffffffffffffffffff1673ffffffffffffffffffffffffffffffffffffffff163373ffffffffffffffffffffffffffffffffffffffff1614611383576040517f08c379a000000000000000000000000000000000000000000000000000000000815260040161137a90614442565b60405180910390fd5b3073ffffffffffffffffffffffffffffffffffffffff168173ffffffffffffffffffffffffffffffffffffffff16636352211e846040518263ffffffff1660e01b81526004016113d39190613661565b602060405180830381865afa1580156113f0573d6000803e3d6000fd5b505050506040513d601f19601f820116820180604052508101906114149190614477565b73ffffffffffffffffffffffffffffffffffffffff161461146a576040517f08c379a0000000000000000000000000000000000000000000000000000000008152600401611461906144f0565b60405180910390fd5b8073ffffffffffffffffffffffffffffffffffffffff166342842e0e30600b600086815260200190815260200160002060020160009054906101000a900473ffffffffffffffffffffffffffffffffffffffff16856040518463ffffffff1660e01b81526004016114dd93929190614510565b600060405180830381600087803b1580156114f757600080fd5b505af115801561150b573d6000803e3d6000fd5b505050506000600b6000848152602001908152602001600020600001541180156115985750600073ffffffffffffffffffffffffffffffffffffffff16600b600084815260200190815260200160002060030160009054906101000a900473ffffffffffffffffffffffffffffffffffffffff1673ffffffffffffffffffffffffffffffffffffffff1614155b1561168957600b60008381526020019081526020016000206000015447116115f5576040517f08c379a00000000000000000000000000000000000000000000000000000000081526004016115ec9061417d565b60405180910390fd5b600b600083815260200190815260200160002060030160009054906101000a900473ffffffffffffffffffffffffffffffffffffffff1673ffffffffffffffffffffffffffffffffffffffff166108fc600b6000858152602001908152602001600020600001549081150290604051600060405180830381858888f19350505050158015611687573d6000803e3d6000fd5b505b6001600b600084815260200190815260200160002060030160146101000a81548160ff0219169083151502179055505050565b6116ce6116c76122c0565b838361274d565b5050565b6116da613340565b600b60008381526020019081526020016000206040518060a001604052908160008201548152602001600182015481526020016002820160009054906101000a900473ffffffffffffffffffffffffffffffffffffffff1673ffffffffffffffffffffffffffffffffffffffff1673ffffffffffffffffffffffffffffffffffffffff1681526020016003820160009054906101000a900473ffffffffffffffffffffffffffffffffffffffff1673ffffffffffffffffffffffffffffffffffffffff1673ffffffffffffffffffffffffffffffffffffffff1681526020016003820160149054906101000a900460ff1615151515815250509050919050565b6117eb6117e56122c0565b83612381565b61182a576040517f08c379a000000000000000000000000000000000000000000000000000000000815260040161182190613d2b565b60405180910390fd5b611836848484846128ba565b50505050565b606061184782612275565b6000611851612916565b90506000815111611871576040518060200160405280600081525061189c565b8061187b8461292d565b60405160200161188c929190614583565b6040516020818303038152906040525b915050919050565b6000600a60009054906101000a900473ffffffffffffffffffffffffffffffffffffffff1690508073ffffffffffffffffffffffffffffffffffffffff16636352211e856040518263ffffffff1660e01b81526004016119049190613661565b602060405180830381865afa158015611921573d6000803e3d6000fd5b505050506040513d601f19601f820116820180604052508101906119459190614477565b73ffffffffffffffffffffffffffffffffffffffff163373ffffffffffffffffffffffffffffffffffffffff16146119b2576040517f08c379a00000000000000000000000000000000000000000000000000000000081526004016119a9906145f3565b60405180910390fd5b8073ffffffffffffffffffffffffffffffffffffffff1663e985e9c533306040518363ffffffff1660e01b81526004016119ed929190614613565b602060405180830381865afa158015611a0a573d6000803e3d6000fd5b505050506040513d601f19601f82011682018060405250810190611a2e9190614651565b611a6d576040517f08c379a0000000000000000000000000000000000000000000000000000000008152600401611a64906146ca565b60405180910390fd5b82600b600086815260200190815260200160002060000181905550603c82611a9591906146ea565b42611aa09190614744565b600b60008681526020019081526020016000206001018190555033600b600086815260200190815260200160002060020160006101000a81548173ffffffffffffffffffffffffffffffffffffffff021916908373ffffffffffffffffffffffffffffffffffffffff1602179055506000600b600086815260200190815260200160002060030160146101000a81548160ff0219169083151502179055506000600b600086815260200190815260200160002060030160006101000a81548173ffffffffffffffffffffffffffffffffffffffff021916908373ffffffffffffffffffffffffffffffffffffffff1602179055508073ffffffffffffffffffffffffffffffffffffffff166323b872dd3330876040518463ffffffff1660e01b8152600401611bd193929190614510565b600060405180830381600087803b158015611beb57600080fd5b505af1158015611bff573d6000803e3d6000fd5b5050505050505050565b6000600a60009054906101000a900473ffffffffffffffffffffffffffffffffffffffff169050600b600083815260200190815260200160002060020160009054906101000a900473ffffffffffffffffffffffffffffffffffffffff1673ffffffffffffffffffffffffffffffffffffffff163373ffffffffffffffffffffffffffffffffffffffff1614611cd4576040517f08c379a0000000000000000000000000000000000000000000000000000000008152600401611ccb90614442565b60405180910390fd5b600b6000838152602001908152602001600020600101544211611d2c576040517f08c379a0000000000000000000000000000000000000000000000000000000008152600401611d23906147e6565b60405180910390fd5b60001515600b600084815260200190815260200160002060030160149054906101000a900460ff16151514611d96576040517f08c379a0000000000000000000000000000000000000000000000000000000008152600401611d8d90614852565b60405180910390fd5b600073ffffffffffffffffffffffffffffffffffffffff16600b600084815260200190815260200160002060030160009054906101000a900473ffffffffffffffffffffffffffffffffffffffff1673ffffffffffffffffffffffffffffffffffffffff161415611e3c576040517f08c379a0000000000000000000000000000000000000000000000000000000008152600401611e33906148e4565b60405180910390fd5b6000600b60008481526020019081526020016000206000015411611e95576040517f08c379a0000000000000000000000000000000000000000000000000000000008152600401611e8c90614950565b60405180910390fd5b600b6000838152602001908152602001600020600001544711611eed576040517f08c379a0000000000000000000000000000000000000000000000000000000008152600401611ee49061417d565b60405180910390fd5b6001600b600084815260200190815260200160002060030160146101000a81548160ff021916908315150217905550600b600083815260200190815260200160002060020160009054906101000a900473ffffffffffffffffffffffffffffffffffffffff1673ffffffffffffffffffffffffffffffffffffffff166108fc600b6000858152602001908152602001600020600001549081150290604051600060405180830381858888f19350505050158015611fae573d6000803e3d6000fd5b508073ffffffffffffffffffffffffffffffffffffffff166342842e0e30600b600086815260200190815260200160002060030160009054906101000a900473ffffffffffffffffffffffffffffffffffffffff16856040518463ffffffff1660e01b815260040161202293929190614510565b600060405180830381600087803b15801561203c57600080fd5b505af1158015612050573d6000803e3d6000fd5b505050507f448b11a84487e5d344046aea585e329319785d6896f1e7ec1dfa47fb984fd8df82600b600085815260200190815260200160002060030160009054906101000a900473ffffffffffffffffffffffffffffffffffffffff16600b6000868152602001908152602001600020600001546040516120d39392919061419d565b60405180910390a15050565b6000600560008473ffffffffffffffffffffffffffffffffffffffff1673ffffffffffffffffffffffffffffffffffffffff16815260200190815260200160002060008373ffffffffffffffffffffffffffffffffffffffff1673ffffffffffffffffffffffffffffffffffffffff16815260200190815260200160002060009054906101000a900460ff16905092915050565b6000600b6000838152602001908152602001600020600001549050919050565b60007f80ac58cd000000000000000000000000000000000000000000000000000000007bffffffffffffffffffffffffffffffffffffffffffffffffffffffff1916827bffffffffffffffffffffffffffffffffffffffffffffffffffffffff1916148061225e57507f5b5e139f000000000000000000000000000000000000000000000000000000007bffffffffffffffffffffffffffffffffffffffffffffffffffffffff1916827bffffffffffffffffffffffffffffffffffffffffffffffffffffffff1916145b8061226e575061226d82612a05565b5b9050919050565b61227e81612a6f565b6122bd576040517f08c379a00000000000000000000000000000000000000000000000000000000081526004016122b4906142b2565b60405180910390fd5b50565b600033905090565b816004600083815260200190815260200160002060006101000a81548173ffffffffffffffffffffffffffffffffffffffff021916908373ffffffffffffffffffffffffffffffffffffffff160217905550808273ffffffffffffffffffffffffffffffffffffffff1661233b8361103d565b73ffffffffffffffffffffffffffffffffffffffff167f8c5be1e5ebec7d5bd14f71427d1e84f3dd0314c0f7b2291e5b200ac8c7c3b92560405160405180910390a45050565b60008061238d8361103d565b90508073ffffffffffffffffffffffffffffffffffffffff168473ffffffffffffffffffffffffffffffffffffffff1614806123cf57506123ce81856120df565b5b8061240d57508373ffffffffffffffffffffffffffffffffffffffff166123f58461076b565b73ffffffffffffffffffffffffffffffffffffffff16145b91505092915050565b8273ffffffffffffffffffffffffffffffffffffffff166124368261103d565b73ffffffffffffffffffffffffffffffffffffffff161461248c576040517f08c379a0000000000000000000000000000000000000000000000000000000008152600401612483906149e2565b60405180910390fd5b600073ffffffffffffffffffffffffffffffffffffffff168273ffffffffffffffffffffffffffffffffffffffff1614156124fc576040517f08c379a00000000000000000000000000000000000000000000000000000000081526004016124f390614a74565b60405180910390fd5b6125098383836001612ab0565b8273ffffffffffffffffffffffffffffffffffffffff166125298261103d565b73ffffffffffffffffffffffffffffffffffffffff161461257f576040517f08c379a0000000000000000000000000000000000000000000000000000000008152600401612576906149e2565b60405180910390fd5b6004600082815260200190815260200160002060006101000a81549073ffffffffffffffffffffffffffffffffffffffff02191690556001600360008573ffffffffffffffffffffffffffffffffffffffff1673ffffffffffffffffffffffffffffffffffffffff168152602001908152602001600020600082825403925050819055506001600360008473ffffffffffffffffffffffffffffffffffffffff1673ffffffffffffffffffffffffffffffffffffffff16815260200190815260200160002060008282540192505081905550816002600083815260200190815260200160002060006101000a81548173ffffffffffffffffffffffffffffffffffffffff021916908373ffffffffffffffffffffffffffffffffffffffff160217905550808273ffffffffffffffffffffffffffffffffffffffff168473ffffffffffffffffffffffffffffffffffffffff167fddf252ad1be2c89b69c2b068fc378daa952ba7f163c4a11628f55a4df523b3ef60405160405180910390a461270b8383836001612c10565b505050565b60006002600083815260200190815260200160002060009054906101000a900473ffffffffffffffffffffffffffffffffffffffff169050919050565b8173ffffffffffffffffffffffffffffffffffffffff168373ffffffffffffffffffffffffffffffffffffffff1614156127bc576040517f08c379a00000000000000000000000000000000000000000000000000000000081526004016127b390614ae0565b60405180910390fd5b80600560008573ffffffffffffffffffffffffffffffffffffffff1673ffffffffffffffffffffffffffffffffffffffff16815260200190815260200160002060008473ffffffffffffffffffffffffffffffffffffffff1673ffffffffffffffffffffffffffffffffffffffff16815260200190815260200160002060006101000a81548160ff0219169083151502179055508173ffffffffffffffffffffffffffffffffffffffff168373ffffffffffffffffffffffffffffffffffffffff167f17307eab39ab6107e8899845ad3d59bd9653f200f220920489ca2b5937696c31836040516128ad9190613451565b60405180910390a3505050565b6128c5848484612416565b6128d184848484612c16565b612910576040517f08c379a000000000000000000000000000000000000000000000000000000000815260040161290790614b72565b60405180910390fd5b50505050565b606060405180602001604052806000815250905090565b60606000600161293c84612d9e565b01905060008167ffffffffffffffff81111561295b5761295a6138f3565b5b6040519080825280601f01601f19166020018201604052801561298d5781602001600182028036833780820191505090505b509050600082602001820190505b6001156129fa578080600190039150507f3031323334353637383961626364656600000000000000000000000000000000600a86061a8153600a85816129e4576129e3614b92565b5b04945060008514156129f5576129fa565b61299b565b819350505050919050565b60007f01ffc9a7000000000000000000000000000000000000000000000000000000007bffffffffffffffffffffffffffffffffffffffffffffffffffffffff1916827bffffffffffffffffffffffffffffffffffffffffffffffffffffffff1916149050919050565b60008073ffffffffffffffffffffffffffffffffffffffff16612a9183612710565b73ffffffffffffffffffffffffffffffffffffffff1614159050919050565b612abc84848484612ef1565b6001811115612b00576040517f08c379a0000000000000000000000000000000000000000000000000000000008152600401612af790614c33565b60405180910390fd5b6000829050600073ffffffffffffffffffffffffffffffffffffffff168573ffffffffffffffffffffffffffffffffffffffff161415612b4857612b4381613017565b612b87565b8373ffffffffffffffffffffffffffffffffffffffff168573ffffffffffffffffffffffffffffffffffffffff1614612b8657612b858582613060565b5b5b600073ffffffffffffffffffffffffffffffffffffffff168473ffffffffffffffffffffffffffffffffffffffff161415612bca57612bc5816131cd565b612c09565b8473ffffffffffffffffffffffffffffffffffffffff168473ffffffffffffffffffffffffffffffffffffffff1614612c0857612c07848261329e565b5b5b5050505050565b50505050565b6000612c378473ffffffffffffffffffffffffffffffffffffffff1661331d565b15612d91578373ffffffffffffffffffffffffffffffffffffffff1663150b7a02612c606122c0565b8786866040518563ffffffff1660e01b8152600401612c829493929190614ca8565b6020604051808303816000875af1925050508015612cbe57506040513d601f19601f82011682018060405250810190612cbb9190614d09565b60015b612d41573d8060008114612cee576040519150601f19603f3d011682016040523d82523d6000602084013e612cf3565b606091505b50600081511415612d39576040517f08c379a0000000000000000000000000000000000000000000000000000000008152600401612d3090614b72565b60405180910390fd5b805181602001fd5b63150b7a0260e01b7bffffffffffffffffffffffffffffffffffffffffffffffffffffffff1916817bffffffffffffffffffffffffffffffffffffffffffffffffffffffff191614915050612d96565b600190505b949350505050565b600080600090507a184f03e93ff9f4daa797ed6e38ed64bf6a1f0100000000000000008310612dfc577a184f03e93ff9f4daa797ed6e38ed64bf6a1f0100000000000000008381612df257612df1614b92565b5b0492506040810190505b6d04ee2d6d415b85acef81000000008310612e39576d04ee2d6d415b85acef81000000008381612e2f57612e2e614b92565b5b0492506020810190505b662386f26fc100008310612e6857662386f26fc100008381612e5e57612e5d614b92565b5b0492506010810190505b6305f5e1008310612e91576305f5e1008381612e8757612e86614b92565b5b0492506008810190505b6127108310612eb6576127108381612eac57612eab614b92565b5b0492506004810190505b60648310612ed95760648381612ecf57612ece614b92565b5b0492506002810190505b600a8310612ee8576001810190505b80915050919050565b600181111561301157600073ffffffffffffffffffffffffffffffffffffffff168473ffffffffffffffffffffffffffffffffffffffff1614612f855780600360008673ffffffffffffffffffffffffffffffffffffffff1673ffffffffffffffffffffffffffffffffffffffff1681526020019081526020016000206000828254612f7d9190614d36565b925050819055505b600073ffffffffffffffffffffffffffffffffffffffff168373ffffffffffffffffffffffffffffffffffffffff16146130105780600360008573ffffffffffffffffffffffffffffffffffffffff1673ffffffffffffffffffffffffffffffffffffffff16815260200190815260200160002060008282546130089190614744565b925050819055505b5b50505050565b6008805490506009600083815260200190815260200160002081905550600881908060018154018082558091505060019003906000526020600020016000909190919091505550565b6000600161306d84611104565b6130779190614d36565b905060006007600084815260200190815260200160002054905081811461315c576000600660008673ffffffffffffffffffffffffffffffffffffffff1673ffffffffffffffffffffffffffffffffffffffff168152602001908152602001600020600084815260200190815260200160002054905080600660008773ffffffffffffffffffffffffffffffffffffffff1673ffffffffffffffffffffffffffffffffffffffff168152602001908152602001600020600084815260200190815260200160002081905550816007600083815260200190815260200160002081905550505b6007600084815260200190815260200160002060009055600660008573ffffffffffffffffffffffffffffffffffffffff1673ffffffffffffffffffffffffffffffffffffffff16815260200190815260200160002060008381526020019081526020016000206000905550505050565b600060016008805490506131e19190614d36565b905060006009600084815260200190815260200160002054905060006008838154811061321157613210613db6565b5b90600052602060002001549050806008838154811061323357613232613db6565b5b90600052602060002001819055508160096000838152602001908152602001600020819055506009600085815260200190815260200160002060009055600880548061328257613281614d6a565b5b6001900381819060005260206000200160009055905550505050565b60006132a983611104565b905081600660008573ffffffffffffffffffffffffffffffffffffffff1673ffffffffffffffffffffffffffffffffffffffff168152602001908152602001600020600083815260200190815260200160002081905550806007600084815260200190815260200160002081905550505050565b6000808273ffffffffffffffffffffffffffffffffffffffff163b119050919050565b6040518060a001604052806000815260200160008152602001600073ffffffffffffffffffffffffffffffffffffffff168152602001600073ffffffffffffffffffffffffffffffffffffffff1681526020016000151581525090565b6000604051905090565b600080fd5b600080fd5b60007fffffffff0000000000000000000000000000000000000000000000000000000082169050919050565b6133e6816133b1565b81146133f157600080fd5b50565b600081359050613403816133dd565b92915050565b60006020828403121561341f5761341e6133a7565b5b600061342d848285016133f4565b91505092915050565b60008115159050919050565b61344b81613436565b82525050565b60006020820190506134666000830184613442565b92915050565b600081519050919050565b600082825260208201905092915050565b60005b838110156134a657808201518184015260208101905061348b565b838111156134b5576000848401525b50505050565b6000601f19601f8301169050919050565b60006134d78261346c565b6134e18185613477565b93506134f1818560208601613488565b6134fa816134bb565b840191505092915050565b6000602082019050818103600083015261351f81846134cc565b905092915050565b6000819050919050565b61353a81613527565b811461354557600080fd5b50565b60008135905061355781613531565b92915050565b600060208284031215613573576135726133a7565b5b600061358184828501613548565b91505092915050565b600073ffffffffffffffffffffffffffffffffffffffff82169050919050565b60006135b58261358a565b9050919050565b6135c5816135aa565b82525050565b60006020820190506135e060008301846135bc565b92915050565b6135ef816135aa565b81146135fa57600080fd5b50565b60008135905061360c816135e6565b92915050565b60008060408385031215613629576136286133a7565b5b6000613637858286016135fd565b925050602061364885828601613548565b9150509250929050565b61365b81613527565b82525050565b60006020820190506136766000830184613652565b92915050565b600080600060608486031215613695576136946133a7565b5b60006136a3868287016135fd565b93505060206136b4868287016135fd565b92505060406136c586828701613548565b9150509250925092565b600081519050919050565b600082825260208201905092915050565b6000819050602082019050919050565b61370481613527565b82525050565b600061371683836136fb565b60208301905092915050565b6000602082019050919050565b600061373a826136cf565b61374481856136da565b935061374f836136eb565b8060005b83811015613780578151613767888261370a565b975061377283613722565b925050600181019050613753565b5085935050505092915050565b600060208201905081810360008301526137a7818461372f565b905092915050565b6000602082840312156137c5576137c46133a7565b5b60006137d3848285016135fd565b91505092915050565b6137e581613436565b81146137f057600080fd5b50565b600081359050613802816137dc565b92915050565b6000806040838503121561381f5761381e6133a7565b5b600061382d858286016135fd565b925050602061383e858286016137f3565b9150509250929050565b613851816135aa565b82525050565b61386081613436565b82525050565b60a08201600082015161387c60008501826136fb565b50602082015161388f60208501826136fb565b5060408201516138a26040850182613848565b5060608201516138b56060850182613848565b5060808201516138c86080850182613857565b50505050565b600060a0820190506138e36000830184613866565b92915050565b600080fd5b600080fd5b7f4e487b7100000000000000000000000000000000000000000000000000000000600052604160045260246000fd5b61392b826134bb565b810181811067ffffffffffffffff8211171561394a576139496138f3565b5b80604052505050565b600061395d61339d565b90506139698282613922565b919050565b600067ffffffffffffffff821115613989576139886138f3565b5b613992826134bb565b9050602081019050919050565b82818337600083830152505050565b60006139c16139bc8461396e565b613953565b9050828152602081018484840111156139dd576139dc6138ee565b5b6139e884828561399f565b509392505050565b600082601f830112613a0557613a046138e9565b5b8135613a158482602086016139ae565b91505092915050565b60008060008060808587031215613a3857613a376133a7565b5b6000613a46878288016135fd565b9450506020613a57878288016135fd565b9350506040613a6887828801613548565b925050606085013567ffffffffffffffff811115613a8957613a886133ac565b5b613a95878288016139f0565b91505092959194509250565b600080600060608486031215613aba57613ab96133a7565b5b6000613ac886828701613548565b9350506020613ad986828701613548565b9250506040613aea86828701613548565b9150509250925092565b60008060408385031215613b0b57613b0a6133a7565b5b6000613b19858286016135fd565b9250506020613b2a858286016135fd565b9150509250929050565b7f4e487b7100000000000000000000000000000000000000000000000000000000600052602260045260246000fd5b60006002820490506001821680613b7b57607f821691505b60208210811415613b8f57613b8e613b34565b5b50919050565b7f4552433732313a20617070726f76616c20746f2063757272656e74206f776e6560008201527f7200000000000000000000000000000000000000000000000000000000000000602082015250565b6000613bf1602183613477565b9150613bfc82613b95565b604082019050919050565b60006020820190508181036000830152613c2081613be4565b9050919050565b7f4552433732313a20617070726f76652063616c6c6572206973206e6f7420746f60008201527f6b656e206f776e6572206f7220617070726f76656420666f7220616c6c000000602082015250565b6000613c83603d83613477565b9150613c8e82613c27565b604082019050919050565b60006020820190508181036000830152613cb281613c76565b9050919050565b7f4552433732313a2063616c6c6572206973206e6f7420746f6b656e206f776e6560008201527f72206f7220617070726f76656400000000000000000000000000000000000000602082015250565b6000613d15602d83613477565b9150613d2082613cb9565b604082019050919050565b60006020820190508181036000830152613d4481613d08565b9050919050565b600081519050613d5a81613531565b92915050565b600060208284031215613d7657613d756133a7565b5b6000613d8484828501613d4b565b91505092915050565b6000604082019050613da260008301856135bc565b613daf6020830184613652565b9392505050565b7f4e487b7100000000000000000000000000000000000000000000000000000000600052603260045260246000fd5b7f4e487b7100000000000000000000000000000000000000000000000000000000600052601160045260246000fd5b6000613e1f82613527565b91507fffffffffffffffffffffffffffffffffffffffffffffffffffffffffffffffff821415613e5257613e51613de5565b5b600182019050919050565b7f455243373231456e756d657261626c653a206f776e657220696e646578206f7560008201527f74206f6620626f756e6473000000000000000000000000000000000000000000602082015250565b6000613eb9602b83613477565b9150613ec482613e5d565b604082019050919050565b60006020820190508181036000830152613ee881613eac565b9050919050565b7f6865742074686f69206769616e20646175206769610000000000000000000000600082015250565b6000613f25601583613477565b9150613f3082613eef565b602082019050919050565b60006020820190508181036000830152613f5481613f18565b9050919050565b7f6461752067696120646120686f616e207468616e680000000000000000000000600082015250565b6000613f91601583613477565b9150613f9c82613f5b565b602082019050919050565b60006020820190508181036000830152613fc081613f84565b9050919050565b7f62616e206b686f6e67206475207469656e206465206461752067696100000000600082015250565b6000613ffd601c83613477565b915061400882613fc7565b602082019050919050565b6000602082019050818103600083015261402c81613ff0565b9050919050565b7f676961206e686f20686f6e20676961206869656e207461690000000000000000600082015250565b6000614069601883613477565b915061407482614033565b602082019050919050565b600060208201905081810360008301526140988161405c565b9050919050565b7f43616e206e6f7420626964206f6e20796f7572206f776e2061756374696f6e00600082015250565b60006140d5601f83613477565b91506140e08261409f565b602082019050919050565b60006020820190508181036000830152614104816140c8565b9050919050565b7f536f20647520686f7020646f6e67206b686f6e6720647520646520636875796560008201527f6e207469656e0000000000000000000000000000000000000000000000000000602082015250565b6000614167602683613477565b91506141728261410b565b604082019050919050565b600060208201905081810360008301526141968161415a565b9050919050565b60006060820190506141b26000830186613652565b6141bf60208301856135bc565b6141cc6040830184613652565b949350505050565b7f455243373231456e756d657261626c653a20676c6f62616c20696e646578206f60008201527f7574206f6620626f756e64730000000000000000000000000000000000000000602082015250565b6000614230602c83613477565b915061423b826141d4565b604082019050919050565b6000602082019050818103600083015261425f81614223565b9050919050565b7f4552433732313a20696e76616c696420746f6b656e2049440000000000000000600082015250565b600061429c601883613477565b91506142a782614266565b602082019050919050565b600060208201905081810360008301526142cb8161428f565b9050919050565b7f4552433732313a2061646472657373207a65726f206973206e6f74206120766160008201527f6c6964206f776e65720000000000000000000000000000000000000000000000602082015250565b600061432e602983613477565b9150614339826142d2565b604082019050919050565b6000602082019050818103600083015261435d81614321565b9050919050565b7f64617520676961206461206b6574207468756300000000000000000000000000600082015250565b600061439a601383613477565b91506143a582614364565b602082019050919050565b600060208201905081810360008301526143c98161438d565b9050919050565b7f63686920636f206e67756f692062616e206d6f6920636f20717579656e206b6560008201527f7420746875632064617520676961000000000000000000000000000000000000602082015250565b600061442c602e83613477565b9150614437826143d0565b604082019050919050565b6000602082019050818103600083015261445b8161441f565b9050919050565b600081519050614471816135e6565b92915050565b60006020828403121561448d5761448c6133a7565b5b600061449b84828501614462565b91505092915050565b7f686f7020646f6e67206b686f6e6720636f2074726f6e6720636f6e7472616374600082015250565b60006144da602083613477565b91506144e5826144a4565b602082019050919050565b60006020820190508181036000830152614509816144cd565b9050919050565b600060608201905061452560008301866135bc565b61453260208301856135bc565b61453f6040830184613652565b949350505050565b600081905092915050565b600061455d8261346c565b6145678185614547565b9350614577818560208601613488565b80840191505092915050565b600061458f8285614552565b915061459b8284614552565b91508190509392505050565b7f6b686f6e6720706861692063687520736f206875750000000000000000000000600082015250565b60006145dd601583613477565b91506145e8826145a7565b602082019050919050565b6000602082019050818103600083015261460c816145d0565b9050919050565b600060408201905061462860008301856135bc565b61463560208301846135bc565b9392505050565b60008151905061464b816137dc565b92915050565b600060208284031215614667576146666133a7565b5b60006146758482850161463c565b91505092915050565b7f6368756120617070726f76650000000000000000000000000000000000000000600082015250565b60006146b4600c83613477565b91506146bf8261467e565b602082019050919050565b600060208201905081810360008301526146e3816146a7565b9050919050565b60006146f582613527565b915061470083613527565b9250817fffffffffffffffffffffffffffffffffffffffffffffffffffffffffffffffff048311821515161561473957614738613de5565b5b828202905092915050565b600061474f82613527565b915061475a83613527565b9250827fffffffffffffffffffffffffffffffffffffffffffffffffffffffffffffffff0382111561478f5761478e613de5565b5b828201905092915050565b7f636875612064656e206865742074686f69206769616e20646175206769610000600082015250565b60006147d0601e83613477565b91506147db8261479a565b602082019050919050565b600060208201905081810360008301526147ff816147c3565b9050919050565b7f706869656e2064617520676961206461206b6574207468756300000000000000600082015250565b600061483c601983613477565b915061484782614806565b602082019050919050565b6000602082019050818103600083015261486b8161482f565b9050919050565b7f6e67756f69206e68616e206e66742070686169206c612064696120636869206860008201527f6f70206c65000000000000000000000000000000000000000000000000000000602082015250565b60006148ce602583613477565b91506148d982614872565b604082019050919050565b600060208201905081810360008301526148fd816148c1565b9050919050565b7f676961206e66742070686169203e203000000000000000000000000000000000600082015250565b600061493a601083613477565b915061494582614904565b602082019050919050565b600060208201905081810360008301526149698161492d565b9050919050565b7f4552433732313a207472616e736665722066726f6d20696e636f72726563742060008201527f6f776e6572000000000000000000000000000000000000000000000000000000602082015250565b60006149cc602583613477565b91506149d782614970565b604082019050919050565b600060208201905081810360008301526149fb816149bf565b9050919050565b7f4552433732313a207472616e7366657220746f20746865207a65726f2061646460008201527f7265737300000000000000000000000000000000000000000000000000000000602082015250565b6000614a5e602483613477565b9150614a6982614a02565b604082019050919050565b60006020820190508181036000830152614a8d81614a51565b9050919050565b7f4552433732313a20617070726f766520746f2063616c6c657200000000000000600082015250565b6000614aca601983613477565b9150614ad582614a94565b602082019050919050565b60006020820190508181036000830152614af981614abd565b9050919050565b7f4552433732313a207472616e7366657220746f206e6f6e20455243373231526560008201527f63656976657220696d706c656d656e7465720000000000000000000000000000602082015250565b6000614b5c603283613477565b9150614b6782614b00565b604082019050919050565b60006020820190508181036000830152614b8b81614b4f565b9050919050565b7f4e487b7100000000000000000000000000000000000000000000000000000000600052601260045260246000fd5b7f455243373231456e756d657261626c653a20636f6e736563757469766520747260008201527f616e7366657273206e6f7420737570706f727465640000000000000000000000602082015250565b6000614c1d603583613477565b9150614c2882614bc1565b604082019050919050565b60006020820190508181036000830152614c4c81614c10565b9050919050565b600081519050919050565b600082825260208201905092915050565b6000614c7a82614c53565b614c848185614c5e565b9350614c94818560208601613488565b614c9d816134bb565b840191505092915050565b6000608082019050614cbd60008301876135bc565b614cca60208301866135bc565b614cd76040830185613652565b8181036060830152614ce98184614c6f565b905095945050505050565b600081519050614d03816133dd565b92915050565b600060208284031215614d1f57614d1e6133a7565b5b6000614d2d84828501614cf4565b91505092915050565b6000614d4182613527565b9150614d4c83613527565b925082821015614d5f57614d5e613de5565b5b828203905092915050565b7f4e487b7100000000000000000000000000000000000000000000000000000000600052603160045260246000fdfea2646970667358221220ac14d42b6a929fa42d9fdcdd01d7c3961d7600f7de9a8d1ed1941446acf4c95b64736f6c634300080a0033",
  "linkReferences": {},
  "deployedLinkReferences": {}
}