{
  "_format": "hh-sol-artifact-1",
  "contractName": "ShareToEarn",
  "sourceName": "contracts/shareToEarn.sol",
  "abi": [
    {
      "inputs": [
        {
          "internalType": "address",
          "name": "commentor",
          "type": "address"
        },
        {
          "internalType": "uint256",
          "name": "idStake",
          "type": "uint256"
        }
      ],
      "name": "donate",
      "outputs": [],
      "stateMutability": "payable",
      "type": "function"
    },
    {
      "inputs": [
        {
          "internalType": "uint256",
          "name": "idStake",
          "type": "uint256"
        },
        {
          "internalType": "address",
          "name": "commentor",
          "type": "address"
        }
      ],
      "name": "reward",
      "outputs": [],
      "stateMutability": "nonpayable",
      "type": "function"
    },
    {
      "inputs": [
        {
          "internalType": "address",
          "name": "creator",
          "type": "address"
        },
        {
          "internalType": "uint256",
          "name": "idStake",
          "type": "uint256"
        },
        {
          "internalType": "uint256",
          "name": "time",
          "type": "uint256"
        }
      ],
      "name": "stake",
      "outputs": [],
      "stateMutability": "payable",
      "type": "function"
    },
    {
      "inputs": [
        {
          "internalType": "uint256",
          "name": "idStake",
          "type": "uint256"
        }
      ],
      "name": "unStake",
      "outputs": [],
      "stateMutability": "nonpayable",
      "type": "function"
    }
  ],
  "bytecode": "0x608060405234801561001057600080fd5b50610ee3806100206000396000f3fe60806040526004361061003f5760003560e01c80630c51b88f146100445780635d3eea911461006057806371bb61f314610089578063e69d849d146100b2575b600080fd5b61005e600480360381019061005991906108d9565b6100ce565b005b34801561006c57600080fd5b506100876004803603810190610082919061092c565b610265565b005b34801561009557600080fd5b506100b060048036038101906100ab9190610959565b61045b565b005b6100cc60048036038101906100c79190610999565b61066b565b005b60008083815260200190815260200160002060000160149054906101000a900460ff1615610131576040517f08c379a000000000000000000000000000000000000000000000000000000000815260040161012890610a36565b60405180910390fd5b8273ffffffffffffffffffffffffffffffffffffffff163373ffffffffffffffffffffffffffffffffffffffff161461019f576040517f08c379a000000000000000000000000000000000000000000000000000000000815260040161019690610aa2565b60405180910390fd5b3360008084815260200190815260200160002060000160006101000a81548173ffffffffffffffffffffffffffffffffffffffff021916908373ffffffffffffffffffffffffffffffffffffffff1602179055503460008084815260200190815260200160002060010181905550600080600084815260200190815260200160002060000160146101000a81548160ff02191690831515021790555080426102479190610af1565b60008084815260200190815260200160002060020181905550505050565b6000808281526020019081526020016000206002015442116102bc576040517f08c379a00000000000000000000000000000000000000000000000000000000081526004016102b390610b93565b60405180910390fd5b60008082815260200190815260200160002060000160009054906101000a900473ffffffffffffffffffffffffffffffffffffffff1673ffffffffffffffffffffffffffffffffffffffff163373ffffffffffffffffffffffffffffffffffffffff161461035f576040517f08c379a000000000000000000000000000000000000000000000000000000000815260040161035690610c25565b60405180910390fd5b6000151560008083815260200190815260200160002060000160149054906101000a900460ff161515146103c8576040517f08c379a00000000000000000000000000000000000000000000000000000000081526004016103bf90610c91565b60405180910390fd5b6000806000838152602001908152602001600020600101549050600160008084815260200190815260200160002060000160146101000a81548160ff0219169083151502179055503373ffffffffffffffffffffffffffffffffffffffff166108fc829081150290604051600060405180830381858888f19350505050158015610456573d6000803e3d6000fd5b505050565b60008083815260200190815260200160002060000160009054906101000a900473ffffffffffffffffffffffffffffffffffffffff1673ffffffffffffffffffffffffffffffffffffffff163373ffffffffffffffffffffffffffffffffffffffff16146104fe576040517f08c379a00000000000000000000000000000000000000000000000000000000081526004016104f590610c25565b60405180910390fd5b6000151560008084815260200190815260200160002060000160149054906101000a900460ff16151514610567576040517f08c379a000000000000000000000000000000000000000000000000000000000815260040161055e90610c91565b60405180910390fd5b600073ffffffffffffffffffffffffffffffffffffffff168173ffffffffffffffffffffffffffffffffffffffff1614156105d7576040517f08c379a00000000000000000000000000000000000000000000000000000000081526004016105ce90610d23565b60405180910390fd5b6000806000848152602001908152602001600020600101549050600160008085815260200190815260200160002060000160146101000a81548160ff0219169083151502179055508173ffffffffffffffffffffffffffffffffffffffff166108fc829081150290604051600060405180830381858888f19350505050158015610665573d6000803e3d6000fd5b50505050565b600080828152602001908152602001600020600201544211156106c3576040517f08c379a00000000000000000000000000000000000000000000000000000000081526004016106ba90610d8f565b60405180910390fd5b6000151560008083815260200190815260200160002060000160149054906101000a900460ff1615151461072c576040517f08c379a000000000000000000000000000000000000000000000000000000000815260040161072390610c91565b60405180910390fd5b600073ffffffffffffffffffffffffffffffffffffffff168273ffffffffffffffffffffffffffffffffffffffff16141561079c576040517f08c379a000000000000000000000000000000000000000000000000000000000815260040161079390610e21565b60405180910390fd5b343373ffffffffffffffffffffffffffffffffffffffff1631116107f5576040517f08c379a00000000000000000000000000000000000000000000000000000000081526004016107ec90610e8d565b60405180910390fd5b8173ffffffffffffffffffffffffffffffffffffffff166108fc349081150290604051600060405180830381858888f1935050505015801561083b573d6000803e3d6000fd5b505050565b600080fd5b600073ffffffffffffffffffffffffffffffffffffffff82169050919050565b600061087082610845565b9050919050565b61088081610865565b811461088b57600080fd5b50565b60008135905061089d81610877565b92915050565b6000819050919050565b6108b6816108a3565b81146108c157600080fd5b50565b6000813590506108d3816108ad565b92915050565b6000806000606084860312156108f2576108f1610840565b5b60006109008682870161088e565b9350506020610911868287016108c4565b9250506040610922868287016108c4565b9150509250925092565b60006020828403121561094257610941610840565b5b6000610950848285016108c4565b91505092915050565b600080604083850312156109705761096f610840565b5b600061097e858286016108c4565b925050602061098f8582860161088e565b9150509250929050565b600080604083850312156109b0576109af610840565b5b60006109be8582860161088e565b92505060206109cf858286016108c4565b9150509250929050565b600082825260208201905092915050565b7f64616e67207374616b6500000000000000000000000000000000000000000000600082015250565b6000610a20600a836109d9565b9150610a2b826109ea565b602082019050919050565b60006020820190508181036000830152610a4f81610a13565b9050919050565b7f63686920636f2063687520736f20687575206d6f692064756f63207374616b65600082015250565b6000610a8c6020836109d9565b9150610a9782610a56565b602082019050919050565b60006020820190508181036000830152610abb81610a7f565b9050919050565b7f4e487b7100000000000000000000000000000000000000000000000000000000600052601160045260246000fd5b6000610afc826108a3565b9150610b07836108a3565b9250827fffffffffffffffffffffffffffffffffffffffffffffffffffffffffffffffff03821115610b3c57610b3b610ac2565b5b828201905092915050565b7f636875612064656e2074686f69206769616e20756e7374616b65000000000000600082015250565b6000610b7d601a836109d9565b9150610b8882610b47565b602082019050919050565b60006020820190508181036000830152610bac81610b70565b9050919050565b7f63686920636f206e67756f692074616f2063617520686f69206d6f692064756f60008201527f6320756e7374616b650000000000000000000000000000000000000000000000602082015250565b6000610c0f6029836109d9565b9150610c1a82610bb3565b604082019050919050565b60006020820190508181036000830152610c3e81610c02565b9050919050565b7f63617520686f692064612064756f6320747261206c6f69000000000000000000600082015250565b6000610c7b6017836109d9565b9150610c8682610c45565b602082019050919050565b60006020820190508181036000830152610caa81610c6e565b9050919050565b7f64696120636869206e67756f69206e68616e206b686f6e67206c61206469612060008201527f6368692030000000000000000000000000000000000000000000000000000000602082015250565b6000610d0d6025836109d9565b9150610d1882610cb1565b604082019050919050565b60006020820190508181036000830152610d3c81610d00565b9050919050565b7f6461206865742074686f69206769616e20646f6e617465000000000000000000600082015250565b6000610d796017836109d9565b9150610d8482610d43565b602082019050919050565b60006020820190508181036000830152610da881610d6c565b9050919050565b7f64696120636869206e67756f69206e68616e206b686f6e67206c61206469612060008201527f636869206b686f6e670000000000000000000000000000000000000000000000602082015250565b6000610e0b6029836109d9565b9150610e1682610daf565b604082019050919050565b60006020820190508181036000830152610e3a81610dfe565b9050919050565b7f736f206475206b686f6e6720647520646520646f6e6174650000000000000000600082015250565b6000610e776018836109d9565b9150610e8282610e41565b602082019050919050565b60006020820190508181036000830152610ea681610e6a565b905091905056fea2646970667358221220aa83c4ae4051028d64d0969b5139ffe6df79939edc89885d2361149d893f199464736f6c634300080a0033",
  "linkReferences": {},
  "deployedLinkReferences": {}
}